:020000040800F2
:1000000000500020991E0008551A00085B1A0008CD
:10001000611A0008671A00086D1A00080000000045
:10002000000000000000000000000000731A00083B
:100030007F1A0008000000008B1A0008971A0008B9
:10004000E11E0008E11E0008E11E0008E11E000894
:10005000E11E0008E11E0008E11E0008E11E000884
:10006000E11E0008E11E0008E11E0008E11E000874
:10007000E11E0008E11E0008E11E0008E11E000864
:10008000E11E0008E11E0008E11E0008E11E000854
:10009000E11E0008E11E0008E11E0008E11E000844
:1000A000E11E0008E11E0008E11E0008E11E000834
:1000B000E11E0008E11E0008E11E0008E11E000824
:1000C000E11E0008E11E0008E11E0008E11E000814
:1000D000E11E0008A51A0008E11E0008E11E000844
:1000E000E11E0008E11E0008E11E000800000000FB
:1000F0000000000000000000000000000000000000
:0C01000000000000000000005FF808F1A3
:1001100010B5054C237833B9044B13B10448AFF341
:1001200000800123237010BDE401002000000000C6
:10013000487A000808B5034B1BB103490348AFF3E5
:10014000008008BD00000000E8010020487A000897
:10015000034613F8012B002AFBD1181A0138704707
:1001600081F0004102E000BF83F0004330B54FEA68
:1001700041044FEA430594EA050F08BF90EA020FD5
:100180001FBF54EA000C55EA020C7FEA645C7FEA68
:10019000655C00F0E2804FEA5454D4EB5555B8BF8B
:1001A0006D420CDD2C4480EA020281EA030382EAFC
:1001B000000083EA010180EA020281EA0303362D8E
:1001C00088BF30BD11F0004F4FEA01314FF4801C61
:1001D0004CEA113102D0404261EB410113F0004F73
:1001E0004FEA03334CEA133302D0524263EB43032A
:1001F00094EA050F00F0A780A4F10104D5F1200EC8
:100200000DDB02FA0EFC22FA05F2801841F1000122
:1002100003FA0EF2801843FA05F359410EE0A5F1F6
:1002200020050EF1200E012A03FA0EFC28BF4CF027
:10023000020C43FA05F3C01851EBE37101F00045DD
:1002400007D54FF0000EDCF1000C7EEB00006EEBEA
:100250000101B1F5801F1BD3B1F5001F0CD3490874
:100260005FEA30004FEA3C0C04F101044FEA4452CB
:1002700012F5800F80F09A80BCF1004F08BF5FEA52
:10028000500C50F1000041EB045141EA050130BD32
:100290005FEA4C0C404141EB0101013C28BFB1F544
:1002A000801FE9D291F0000F04BF01460020B1FA8F
:1002B00081F308BF2033A3F10B03B3F120020CDA62
:1002C0000C3208DD02F1140CC2F10C0201FA0CF040
:1002D00021FA02F10CE002F11402D8BFC2F1200CA5
:1002E00001FA02F120FA0CFCDCBF41EA0C0190405B
:1002F000E41AA2BF01EB0451294330BD6FEA0404A4
:100300001F3C1CDA0C340EDC04F11404C4F120028E
:1003100020FA04F001FA02F340EA030021FA04F3A0
:1003200045EA030130BDC4F10C04C4F1200220FAF7
:1003300002F001FA04F340EA0300294630BD21FA35
:1003400004F0294630BD94F0000F83F4801306BFFB
:1003500081F480110134013D4EE77FEA645C18BFEF
:100360007FEA655C29D094EA050F08BF90EA020F86
:1003700005D054EA000C04BF1946104630BD91EA7E
:10038000030F1EBF0021002030BD5FEA545C05D181
:100390004000494128BF41F0004130BD14F58004C0
:1003A0003CBF01F5801130BD01F0004545F0FE4134
:1003B00041F470014FF0000030BD7FEA645C1ABF69
:1003C000194610467FEA655C1CBF0B46024650EAA0
:1003D000013406BF52EA033591EA030F41F40021CC
:1003E00030BD00BF90F0000F04BF0021704730B552
:1003F0004FF4806404F132044FF000054FF0000127
:1004000050E700BF90F0000F04BF0021704730B5E7
:100410004FF4806404F1320410F0004548BF4042BC
:100420004FF000013EE700BF42004FEAE2014FEA11
:1004300031014FEA02701FBF12F07F4393F07F4FEC
:1004400081F06051704732F07F4208BF704793F0EF
:100450007F4F04BF41F40021704730B54FF4607402
:1004600001F0004521F000411CE700BF50EA010205
:1004700008BF704730B54FF000050AE050EA0102AE
:1004800008BF704730B511F0004502D5404261EB1E
:1004900041014FF4806404F132045FEA915C3FF45F
:1004A000D8AE4FF003025FEADC0C18BF03325FEAFC
:1004B000DC0C18BF033202EBDC02C2F1200300FAAD
:1004C00003FC20FA02F001FA03FE40EA0E0021FAD2
:1004D00002F11444BDE600BF70B54FF0FF0C4CF4C0
:1004E000E06C1CEA11541DBF1CEA135594EA0C0F72
:1004F00095EA0C0F00F0DEF82C4481EA030621EAAD
:100500004C5123EA4C5350EA013518BF52EA0335E7
:1005100041F4801143F4801338D0A0FB02CE4FF099
:100520000005E1FB02E506F00042E0FB03E54FF0C9
:100530000006E1FB03569CF0000F18BF4EF0010EC1
:10054000A4F1FF04B6F5007F64F5407404D25FEABD
:100550004E0E6D4146EB060642EAC62141EA555170
:100560004FEAC52040EA5E504FEACE2EB4F1FD0CB2
:1005700088BFBCF5E06F1ED8BEF1004F08BF5FEA30
:10058000500E50F1000041EB045170BD06F00046E2
:1005900046EA010140EA020081EA0301B4EB5C048F
:1005A000C2BFD4EB0C0541EA045170BD41F4801187
:1005B0004FF0000E013C00F3AB8014F1360FDEBFAC
:1005C000002001F0004170BDC4F10004203C35DA88
:1005D0000C341BDC04F11404C4F1200500FA05F30B
:1005E00020FA04F001FA05F240EA020001F00042AC
:1005F00021F0004110EBD37021FA04F642EB060122
:100600005EEA430E08BF20EAD37070BDC4F10C044B
:10061000C4F1200500FA04F320FA05F001FA04F20F
:1006200040EA020001F0004110EBD37041F10001FB
:100630005EEA430E08BF20EAD37070BDC4F1200506
:1006400000FA05F24EEA020E20FA04F301FA05F26E
:1006500043EA020321FA04F001F0004121FA04F216
:1006600020EA020000EBD3705EEA430E08BF20EAE6
:10067000D37070BD94F0000F0FD101F00046400020
:1006800041EB010111F4801F08BF013CF7D041EAA2
:10069000060195F0000F18BF704703F000465200A6
:1006A00043EB030313F4801F08BF013DF7D043EA77
:1006B0000603704794EA0C0F0CEA135518BF95EA2D
:1006C0000C0F0CD050EA410618BF52EA4306D1D1B4
:1006D00081EA030101F000414FF0000070BD50EAD3
:1006E000410606BF1046194652EA430619D094EA5D
:1006F0000C0F02D150EA013613D195EA0C0F05D147
:1007000052EA03361CBF104619460AD181EA03019A
:1007100001F0004141F0FE4141F470014FF0000052
:1007200070BD41F0FE4141F4780170BD70B54FF0ED
:10073000FF0C4CF4E06C1CEA11541DBF1CEA13556D
:1007400094EA0C0F95EA0C0F00F0A7F8A4EB05044F
:1007500081EA030E52EA03354FEA013100F0888046
:100760004FEA03334FF0805545EA131343EA12630F
:100770004FEA022245EA111545EA10654FEA0026C4
:100780000EF000419D4208BF964244F1FD0404F57D
:10079000407402D25B084FEA3202B61A65EB0305D9
:1007A0005B084FEA32024FF480104FF4002CB6EB96
:1007B000020E75EB030E22BFB61A754640EA0C0016
:1007C0005B084FEA3202B6EB020E75EB030E22BF56
:1007D000B61A754640EA5C005B084FEA3202B6EB97
:1007E000020E75EB030E22BFB61A754640EA9C0056
:1007F0005B084FEA3202B6EB020E75EB030E22BF26
:10080000B61A754640EADC0055EA060E18D04FEAE3
:10081000051545EA16754FEA06164FEAC30343EA83
:1008200052734FEAC2025FEA1C1CC0D111F4801F50
:100830000BD141EA00014FF000004FF0004CB6E749
:1008400011F4801F04BF01430020B4F1FD0C88BFE8
:10085000BCF5E06F3FF6AFAEB5EB030C04BFB6EBF3
:10086000020C5FEA500C50F1000041EB045170BDE6
:100870000EF0004E4EEA113114EB5C04C2BFD4EB13
:100880000C0541EA045170BD41F480114FF0000E97
:10089000013C90E645EA060E8DE60CEA135594EA13
:1008A0000C0F08BF95EA0C0F3FF43BAF94EA0C0F16
:1008B0000AD150EA01347FF434AF95EA0C0F7FF48B
:1008C00025AF104619462CE795EA0C0F06D152EADF
:1008D00003353FF4FDAE1046194622E750EA4106C3
:1008E00018BF52EA43067FF4C5AE50EA41047FF4D4
:1008F0000DAF52EA43057FF4EBAE12E74FF0FF3C39
:1009000006E000BF4FF0010C02E000BF4FF0010C09
:100910004DF804CD4FEA410C7FEA6C5C4FEA430C82
:1009200018BF7FEA6C5C1BD001B050EA410C0CBFD1
:1009300052EA430C91EA030F02BF90EA020F002033
:10094000704710F1000F91EA030F58BF994208BF9A
:1009500090422CBFD8176FEAE37040F00100704757
:100960004FEA410C7FEA6C5C02D150EA013C07D1AE
:100970004FEA430C7FEA6C5CD6D152EA033CD3D0F9
:100980005DF8040B704700BF8446104662468C46F3
:100990001946634600E000BF01B5FFF7B7FF002826
:1009A00048BF10F1000F01BD4DF808EDFFF7F4FF4F
:1009B0000CBF012000205DF808FB00BF4DF808EDDA
:1009C000FFF7EAFF34BF012000205DF808FB00BFFD
:1009D0004DF808EDFFF7E0FF94BF012000205DF81F
:1009E00008FB00BF4DF808EDFFF7CEFF94BF0120D4
:1009F00000205DF808FB00BF4DF808EDFFF7C4FFCD
:100A000034BF012000205DF808FB00BF4A0011D26E
:100A100012F5001211D20DD56FF47873B3EB625258
:100A20000ED44FEAC12343F0004343EA505323FA64
:100A300002F070474FF00000704750EA013002D1D9
:100A40004FF0FF3070474FF0000070474FEA41020F
:100A5000B2F1E04324BFB3F5001CDCF1FE5C0DD91C
:100A600001F0004C4FEAC0024CEA5070B2F1004F66
:100A700040EB830008BF20F00100704711F0804F69
:100A800021D113F13872BCBF01F00040704741F42E
:100A900080114FEA5252C2F11802C2F1200C10FA32
:100AA0000CF320FA02F018BF40F001004FEAC12316
:100AB0004FEAD32303FA0CFC40EA0C0023FA02F3BA
:100AC0004FEA4303CCE77FEA625307D150EA013390
:100AD0001EBF4FF0FE4040F44000704701F0004060
:100AE00040F0FE4040F40000704700BF80F000403E
:100AF00002E000BF81F0004142001FBF5FEA4103F6
:100B000092EA030F7FEA226C7FEA236C6AD04FEAF5
:100B10001262D2EB1363C1BFD2184140484041403A
:100B2000B8BF5B42192B88BF704710F0004F40F4EC
:100B3000000020F07F4018BF404211F0004F41F408
:100B4000000121F07F4118BF494292EA030F3FD0D4
:100B5000A2F1010241FA03FC10EB0C00C3F12003E7
:100B600001FA03F100F0004302D5494260EB400076
:100B7000B0F5000F13D3B0F1807F06D340084FEAE1
:100B8000310102F10102FE2A51D2B1F1004F40EBD6
:100B9000C25008BF20F0010040EA0300704749003E
:100BA00040EB0000013A28BFB0F5000FEDD2B0FADB
:100BB00080FCACF1080CB2EB0C0200FA0CF0AABFFE
:100BC00000EBC25052421843BCBFD040184370479C
:100BD00092F0000F81F4000106BF80F400000132A2
:100BE000013BB5E74FEA41037FEA226C18BF7FEA79
:100BF000236C21D092EA030F04D092F0000F08BFBB
:100C00000846704790EA010F1CBF0020704712F0A1
:100C10007F4F04D1400028BF40F00040704712F1E0
:100C200000723CBF00F50000704700F0004343F045
:100C3000FE4040F4000070477FEA226216BF08467B
:100C40007FEA23630146420206BF5FEA412390EA3E
:100C5000010F40F4800070474FF0000304E000BF34
:100C600010F0004348BF40425FEA000C08BF7047E5
:100C700043F0964301464FF000001CE050EA0102A9
:100C800008BF70474FF000030AE000BF50EA0102BE
:100C900008BF704711F0004302D5404261EB4101AB
:100CA0005FEA010C02BF84460146002043F0B643D0
:100CB00008BFA3F18053A3F50003BCFA8CF2083AF5
:100CC000A3EBC25310DB01FA02FC634400FA02FCFE
:100CD000C2F12002BCF1004F20FA02F243EB020005
:100CE00008BF20F00100704702F1200201FA02FC67
:100CF000C2F1200250EA4C0021FA02F243EB02005A
:100D000008BF20EADC70704742000ED2B2F1FE4FFD
:100D10000BD34FF09E03B3EB126209D44FEA0023CA
:100D200043F0004323FA02F070474FF00000704791
:100D300012F1610F01D1420202D14FF0FF30704732
:100D40004FF00000704700BF38B505460C46002242
:100D5000002328462146FFF731FE28B928462146C0
:100D6000BDE8384000F00AB8284604F1004100F020
:100D700005F8404261EB410138BD00BFD0B500220B
:100D80000B4B06460F46FFF7A7FBFFF73FFE044657
:100D9000FFF728FB0022074BFFF79EFB02460B469E
:100DA00030463946FFF7E0F9FFF730FE2146D0BD67
:100DB0000000F03D0000F04180B584B000AF3B1D65
:100DC00000221A605A609A60184B194A1A60174B31
:100DD00000229A60154B00221A73144B00221A75D8
:100DE000124B4FF46022DA61104B00225A600F4B15
:100DF00001221A610D4801F0FBF80346002B01D0D7
:100E000000F0A3F901237B600123BB600023FB609A
:100E10003B1D1946054801F0C3F90346002B01D0DC
:100E200000F093F900BF1037BD4680BD00020020DE
:100E30000024014080B588B000AF786007F110034E
:100E400000221A605A609A60DA607B681B68144A54
:100E5000934221D1134B9B69124A43F4007393616F
:100E6000104B9B6903F40073FB60FB680D4B9B699F
:100E70000C4A43F0040393610A4B9B6903F004039B
:100E8000BB60BB6802233B6103237B6107F1100356
:100E90001946054801F07EFC00BF2037BD4680BDE5
:100EA00000240140001002400008014080B588B0D5
:100EB00000AF07F1100300221A605A609A60DA60EE
:100EC0003F4B9B693E4A43F0100393613C4B9B6947
:100ED00003F01003FB60FB68394B9B69384A43F011
:100EE00020039361364B9B6903F02003BB60BB6812
:100EF000334B9B69324A43F004039361304B9B6947
:100F000003F004037B607B682D4B9B692C4A43F004
:100F1000080393612A4B9B6903F008033B603B681D
:100F200001224FF40051274801F0B8FD01224FF48F
:100F30008071254801F0B2FD4FF400533B6101235D
:100F40007B610023BB610223FB6107F1100319469B
:100F50001C4801F01FFC01233B611C4B7B610023FB
:100F6000BB6107F110031946174801F013FC4FF657
:100F7000FC033B6103237B6107F110031946124810
:100F800001F008FC4FF6BF733B6103237B6107F15F
:100F9000100319460E4801F0FDFB4FF480733B61CE
:100FA00001237B610023BB610223FB6107F1100376
:100FB0001946054801F0EEFB00BF2037BD4680BD55
:100FC0000010024000100140000801400000111014
:100FD000000C0140B0B5A6B000AF0023BB6107F123
:100FE0001C037C220021184603F0D6FD00F07AFF96
:100FF00000F050F8FFF75AFF00F0D0FEFFF7DCFEDC
:1010000000F022FE1D4802F027FA00211B4802F0E2
:10101000C5FA1B4B3C1D1D460FCD0FC42B681A464D
:10102000228002341B0C23703B1D132219461548E5
:1010300002F0A5FF144B4FF000021A6000F08AF88E
:10104000012212490F4802F0CFFF07F1180310499F
:10105000184600F05FFB07F118031846FFF778F811
:1010600003469AB207F118031946064802F087FFB3
:101070004FF47A7000F098FFE7E700BF5C020020B1
:10108000687A0008A40200205402002030020020E8
:10109000607A000880B594B000AF07F128032822D9
:1010A0000021184603F078FD07F1140300221A60AE
:1010B0005A609A60DA601A613B1D00221A605A6019
:1010C0009A60DA600123BB624FF48033FB62002335
:1010D0003B630123BB6302237B644FF48033BB6417
:1010E0004FF4E013FB6407F12803184601F0EEFC0F
:1010F0000346002B01D000F028F80F237B61022368
:10110000BB610023FB614FF480633B6200237B6281
:1011100007F114030221184601F05AFF0346002B81
:1011200001D000F012F802237B604FF40043FB6013
:101130003B1D184602F0DAF80346002B01D000F000
:1011400004F800BF5037BD4680BD80B400AF72B612
:1011500000BFFEE780B500AF054B1B68184600F0E6
:101160000BF803461A46034B1B685A6300BF80BD49
:10117000540200205C02002080B582B000AF78608D
:101180007868FFF751F90EA3D3E90023FFF7A4F91C
:1011900002460B46104619464FF000020A4BFEF776
:1011A000E5FF02460B4610461946FFF72FFC0346A3
:1011B0009BB218460837BD4680BD00BFAFF3008024
:1011C00055555555555539400070874080B483B00A
:1011D00000AF78607B681B68094A93420AD1094BCB
:1011E00001221A707B681B68DA687B681B6842F012
:1011F0001002DA6000BF0C37BD4680BC704700BFEC
:101200000038014050020020B0B58CB000AF7860CB
:101210007B681B68DB6803F01003002B00F0CE80B6
:101220000023FB6007F1100300221A605A609A60E5
:10123000DA601A615A619A61624B1B78002B00F0E8
:10124000BE80614B1B7887F82F3097F82F302F2BFB
:1012500008D15E4B00221A705D4B01221A705D4B63
:1012600001221A705A4B1B78002B5BD0574B1B780E
:101270000F2B54D8554B1B781946574A97F82F30E7
:101280005354524B1B780133DAB2504B1A7097F813
:101290002F303B2B46D14D4B1B781A464E4B00212D
:1012A000995407F10C0320220021184603F074FC26
:1012B00007F10C031846FEF74BFF03461A4607F1E9
:1012C0000C031344454A1C46134607CB206061605B
:1012D000A2601B78237307F10C033F49184603F003
:1012E00063FC07F10C031846FEF732FF03461A466B
:1012F00007F10C0313443A4A1068186012791A7106
:101300000A2000F051FE3449786800F06DF8034679
:101310001A46304B1A702E4B00221A7002E02D4BE9
:1013200000221A702B4B1B78002B2BD107F10C03DA
:1013300020220021184603F02FFC07F10C03184669
:10134000FEF706FF03461A4607F10C031344254A2D
:101350001C4615460FCD20606160A260E36007F176
:101360000C031846FEF7F4FE03469AB207F10C018F
:101370001423786802F080FD154B00221A70154B7B
:1013800001221A700F4B00221A700023BB607B6889
:101390001B681B68BB607B681B685B68BB60BB68C5
:1013A0007B681B68DA687B681B6822F01002DA60D1
:1013B00001220549786802F017FE00E000BF3037CF
:1013C000BD46B0BD50020020300200205102002076
:1013D0005202002000000020400200207C7A000819
:1013E0008C7A0008947A000880B5ACB000AF7860C1
:1013F0003960B749386803F0FBFB0346002B1FD068
:10140000B44B02221A700023BB6007F10C037C224C
:101410000021184603F0C0FB07F10803AE49184647
:1014200000F078F907F108031846FEF791FE03462D
:101430009AB207F108010A23786802F01DFD40E125
:10144000A649386803F0D4FB0346002B22D0A14BF9
:1014500003221A703A21386803F0B5FB03460133C2
:10146000C7F8983007F18803D7F89810184603F0AA
:10147000B7FB07F18803184603F05CFB02460B46F6
:1014800010461946FFF7E2FA0346954A1360FFF744
:1014900061FE16E19349386803F0AAFB0346002B6E
:1014A0002AD08C4B04221A703A21386803F08BFB47
:1014B00003460133C7F89C3007F18803D7F89C1026
:1014C000184603F08DFB07F18803184603F032FB42
:1014D00002460B4610461946FFF7B8FA0246804B03
:1014E0001B6819461046FFF707FB03461A467C4B5C
:1014F0001A60FFF72FFEE4E07B49386803F078FBC1
:101500000346002B2AD0734B05221A703A21386803
:1015100003F059FB03460133C7F8A03007F18803F5
:10152000D7F8A010184603F05BFB07F188031846B4
:1015300003F000FB02460B4610461946FFF786FAF9
:101540000246674B1B6811461846FFF7D3FA03465D
:101550001A46634B1A60FFF7FDFDB2E06349386835
:1015600003F046FB0346002B09D05A4B06221A70A3
:101570005F4B1B695E4A43F080731361A1E05D49D4
:10158000386803F035FB0346002B09D0514B072286
:101590001A70574B1B69564A43F48073136190E0ED
:1015A0005549386803F024FB0346002B09D0494B0A
:1015B00008221A70514B1B69504A43F000531361C3
:1015C0007FE04F49386803F013FB0346002B09D036
:1015D000404B09221A70494B1B69484A43F4005397
:1015E00013616EE04749386803F002FB0346002BA5
:1015F0001CD0384B0B221A703A21386803F0E3FAFA
:1016000003460133C7F8A43007F18803D7F8A410C4
:10161000184603F0E5FA07F18803184603F08DFA3F
:1016200003469AB2384B1B68DA624AE03749386899
:1016300003F0DEFA0346002B1CD0264B0C221A7056
:101640003A21386803F0BFFA03460133C7F8A830DF
:1016500007F18803D7F8A810184603F0C1FA07F17C
:101660008803184603F069FA03469AB2264B1B68B2
:101670009A6226E02649386803F0BAFA0346002B3E
:101680001CD0144B0A221A703A21386803F09BFAD6
:1016900003460133C7F8AC3007F18803D7F8AC1024
:1016A000184603F09DFA07F18803184603F045FA3F
:1016B00003469AB2144B1B685A6302E0054B0022A2
:1016C0001A70044B1B781846B037BD4680BD00BF6A
:1016D000A47A000800000020AC7A0008B07A000864
:1016E00054020020B87A0008C07A0008C87A0008BE
:1016F00000080140D47A0008E07A00080010014098
:10170000EC7A0008F87A00085C020020007B0008F0
:10171000087B000890B589B000AF7860396000237D
:10172000BB6007F10C0300221A605A609A60002324
:10173000FB770023BB830023FB76794B1B6818469D
:10174000FFF7E2FA0346FB77754B1C68FB7F1846F0
:10175000FFF782FA034619462046FFF7CBF9034606
:101760001846FEF761FE4FF000026E4BFEF7B4FE26
:1017700002460B4610461946FFF748F90346BB835D
:10178000BA8B694BA3FB0213D9080B469B000B4491
:101790005B00D31A9BB2FB76FB7E042B06D8BB8B77
:1017A000614AA2FB0323DB089BB207E0BB8B5E4AC6
:1017B000A2FB0323DB089BB201339BB2BB838022D5
:1017C0000021786803F0E8F97868FEF7C1FC034669
:1017D0001A467B68134455491A460B461B881380EA
:1017E0003968786803F0E0F97868FEF7B1FC0346E1
:1017F0001A467B6813444E491A460B4603CB1060C9
:101800005160FB7F07F108010A22184600F09EF89C
:1018100007F108031946786803F0C6F97868FEF7FF
:1018200097FC03461A467B68134442491A460B4606
:101830001B881380BB8B07F108010A22184600F0B1
:1018400085F8BB8B092B05D80023BB723B7A7B72D2
:1018500030233B7207F108031946786803F0A4F9B6
:101860007868FEF775FC03461A467B681344324AD3
:101870001068186092889A80304B5B6B184607F1AD
:1018800008030A22194600F061F807F10803194617
:10189000786803F089F97868FEF75AFC03461A461F
:1018A0007B681344264A1068186092889A80234BFC
:1018B0009B6A184607F108030A22194600F046F809
:1018C00007F108031946786803F06EF97868FEF7A7
:1018D0003FFC03461A467B6813441A4A1068186096
:1018E00092889A80154BDB6A184607F108030A2292
:1018F000194600F02BF807F108031946786803F041
:1019000053F97868FEF724FC03461A467B681344B3
:101910000D4A1068186000BF2437BD4690BD00BF57
:101920005402002000408F40CDCCCCCC107B00086E
:10193000147B00081C7B0008207B00080008004086
:10194000287B0008307B0008387B000880B489B011
:1019500000AFF860B9601346FB71FB68FB610023C0
:10196000FB760023BB74274B7B610023FB74FB6970
:10197000002B07D1BB6830221A70BB6801330022EC
:101980001A703AE0FB69002B2FDAFB7EBA68134429
:101990002D221A70FB7E0133FB76FB695B42FB61F3
:1019A00023E0FA697B69B2FBF3F3BB74BB7C002BC9
:1019B00002D1FB7C002B12D00123FB74FB7EBA68A2
:1019C0001344BA7C3032D2B21A70FB7E0133FB76FC
:1019D000FA69BB7C796901FB03F3D31AFB617B696C
:1019E000094AA2FB0323DB087B617B69002BD8D16A
:1019F000FB7EBA68134400221A702437BD4680BCAF
:101A0000704700BF80969800CDCCCCCC80B582B01A
:101A100000AF0F4B9B690E4A43F0010393610C4BDF
:101A20009B6903F001037B607B68094BDB69084A13
:101A300043F08053D361064BDB6903F080533B6076
:101A40003B68052000F0B2FD00BF0837BD4680BDF1
:101A50000010024080B400AFFEE780B400AFFEE7A4
:101A600080B400AFFEE780B400AFFEE780B400AF03
:101A7000FEE780B400AF00BFBD4680BC704780B4B5
:101A800000AF00BFBD4680BC704780B400AF00BF50
:101A9000BD4680BC704780B500AF00F069FA00BF5A
:101AA00080BD000080B500AF034802F0C3FA0248D1
:101AB000FFF7AAFB00BF80BDA402002080B400AFE6
:101AC00001231846BD4680BC704780B582B000AF88
:101AD0007860396003F036F8034616221A604FF03A
:101AE000FF3318460837BD4680BD80B582B000AFD1
:101AF00078604FF0FF317868FFF7E7FFFEE780B5C9
:101B000086B000AFF860B9607A6000237B610AE0BC
:101B1000AFF300800146BB685A1CBA60CAB21A70A3
:101B20007B6901337B617A697B689A42F0DB7B6871
:101B300018461837BD4680BD80B586B000AFF86046
:101B4000B9607A6000237B6109E0BB685A1CBA6007
:101B50001B781846AFF300807B6901337B617A699B
:101B60007B689A42F1DB7B6818461837BD4680BD1A
:101B700080B483B000AF78604FF0FF3318460C3765
:101B8000BD4680BC704780B483B000AF78603960D8
:101B90003B684FF400525A60002318460C37BD468C
:101BA00080BC704780B483B000AF786001231846D2
:101BB0000C37BD4680BC704780B485B000AFF8607C
:101BC000B9607A60002318461437BD4680BC704760
:101BD00080B586B000AF7860144A154BD31A7B618C
:101BE0007B693B61134B1B68002B02D1114B124ADE
:101BF0001A60104B1A687B6813443A699A4207D2FC
:101C000002F0A0FF03460C221A604FF0FF3309E0F8
:101C1000084B1B68FB60074B1A687B681344054A36
:101C20001360FB6818461837BD4680BD0050002081
:101C300000040000580200200003002080B400AF20
:101C400000BFBD4680BC704780B58AB000AF07F1C9
:101C5000200300221A605A603B1D00221A605A605D
:101C60009A60DA601A615A619A61224B224A1A60BC
:101C7000204B08225A601F4B00229A601D4B4FF4E4
:101C80007A62DA601B4B00221A611A4B80229A6139
:101C9000184801F033FC0346002B01D0FFF755FA3A
:101CA00000233B6200237B6207F1200319461148A1
:101CB00002F034F80346002B01D0FFF746FA602308
:101CC0007B604FF4FA73BB600023FB6000237B61F1
:101CD0003B1D00221946074801F050FD0346002B2A
:101CE00001D0FFF732FA034800F026F800BF28378A
:101CF000BD4680BD5C0200200008004080B485B075
:101D000000AF78607B681B68094A93420BD1094B8E
:101D1000DB69084A43F00403D361064BDB6903F037
:101D20000403FB60FB6800BF1437BD4680BC7047EE
:101D3000000800400010024080B588B000AF786015
:101D400007F1100300221A605A609A60DA607B681B
:101D50001B680F4A934217D10E4B9B690D4A43F003
:101D6000080393610B4B9B6903F00803FB60FB685E
:101D700040233B6102237B610223FB6107F11003D7
:101D80001946054800F006FD00BF2037BD4680BD5E
:101D90000008004000100240000C014080B500AF78
:101DA000114B124A1A60104B4FF4E1325A600E4B3D
:101DB00000229A600C4B0022DA600B4B00221A6161
:101DC000094B0C225A61084B00229A61064B0022F3
:101DD000DA61054802F000F80346002B01D0FFF756
:101DE000B4F900BF80BD00BFA4020020003801404C
:101DF00080B588B000AF786007F1100300221A6048
:101E00005A609A60DA607B681B68204A934239D135
:101E10001F4B9B691E4A43F4804393611C4B9B6993
:101E200003F48043FB60FB68194B9B69184A43F03D
:101E300004039361164B9B6903F00403BB60BB680A
:101E40004FF400733B6102237B610323FB6107F1C5
:101E5000100319460F4800F09DFC4FF480633B616E
:101E600000237B610023BB6107F110031946094879
:101E700000F090FC00220121252000F0A2FB25208B
:101E800000F0BBFB00BF2037BD4680BD00380140DD
:101E90000010024000080140FFF7D0FE0B480C493B
:101EA0000C4A002302E0D458C4500433C4188C42B6
:101EB000F9D3094A094C002301E013600432A2421D
:101EC000FBD302F045FEFFF785F8704700000020C5
:101ED000E4010020A47F0008E401002000030020AA
:101EE000FEE7000080B500AF084B1B68074A43F0CF
:101EF00010031360032000F059FB002000F008F8E5
:101F0000FFF784FD0023184680BD00BF002002407B
:101F100080B582B000AF7860124B1A68124B1B7804
:101F200019464FF47A73B3FBF1F3B2FBF3F318469F
:101F300000F071FB0346002B01D001230EE07B680B
:101F40000F2B0AD8002279684FF0FF3000F039FBE0
:101F5000064A7B681360002300E001231846083717
:101F6000BD4680BD040000200C00002008000020B9
:101F700080B400AF054B1B781A46054B1B68134411
:101F8000034A136000BFBD4680BC70470C000020B0
:101F9000EC02002080B400AF024B1B681846BD461F
:101FA00080BC7047EC02002080B584B000AF786040
:101FB000FFF7F0FFB8607B68FB60FB68B3F1FF3FA1
:101FC00005D00A4B1B781A46FB681344FB6000BF20
:101FD000FFF7E0FF0246BB68D31AFA689A42F7D8C7
:101FE00000BF00BF1037BD4680BD00BF0C00002001
:101FF00080B586B000AF78600023FB7500233B619D
:102000000023BB600023FB607B68002B01D1012310
:10201000BEE07B689B68002B7B689B6A002B09D124
:102020007B680022DA627B68002283F824207868CB
:10203000FEF700FF786800F0ABF90346FB757B689C
:102040009B6A03F01003002B40F09980FB7D002B6E
:1020500040F095807B689B6A23F4885323F0020349
:1020600043F002027B689A627B685A687B68DB698E
:102070001A437B681B7B5B001343BA681343BB6046
:102080007B689B68B3F5807F03D07B689B68012BDE
:1020900002D14FF4807300E000233A6913433B619F
:1020A0007B681B7D012B19D17B681B7B002B09D121
:1020B0007B689B69013B5A033B69134343F400630C
:1020C0003B610BE07B689B6A43F020027B689A626D
:1020D0007B68DB6A43F001027B68DA627B681B681D
:1020E0005B6823F469417B681B683A690A435A605C
:1020F0007B681B689A68284B13407A681268B96835
:102100000B4393607B689B68B3F5807F03D07B684B
:102110009B68012B04D17B681B69013B1B05FB609D
:102120007B681B68DB6A23F470017B681B68FA68B4
:102130000A43DA627B681B689A68184B1340BA68D6
:102140009A420BD17B680022DA627B689B6A23F09B
:10215000030343F001027B689A6218E07B689B6A84
:1021600023F0120343F010027B689A627B68DB6AFB
:1021700043F001027B68DA620123FB7507E07B68AC
:102180009B6A43F010027B689A620123FB75FB7D1A
:1021900018461837BD4680BDFDF7E1FFFE0E1FFF54
:1021A00080B485B000AF786039600023FB730023F2
:1021B000BB607B6893F82430012B01D10223DCE063
:1021C0007B68012283F824203B685B68062B1CD8BF
:1021D0007B681B68596B3B685A6813469B00134425
:1021E000053B1F2202FA03F3DB4319403B681868E2
:1021F0003B685A6813469B001344053B00FA03F200
:102200007B681B680A435A633CE03B685B680C2BA5
:102210001CD87B681B68196B3B685A6813469B0087
:102220001344233B1F2202FA03F3DB4319403B68AC
:1022300018683B685A6813469B001344233B00FA16
:1022400003F27B681B680A431A631BE07B681B6808
:10225000D96A3B685A6813469B001344413B1F22CE
:1022600002FA03F3DB4319403B6818683B685A687D
:1022700013469B001344413B00FA03F27B681B6842
:102280000A43DA623B681B68092B1CD97B681B6810
:10229000D9683B681A6813465B0013441E3B07224B
:1022A00002FA03F3DB4319403B6898683B681A68FD
:1022B00013465B0013441E3B00FA03F27B681B6865
:1022C0000A43DA6019E07B681B6819693B681A6881
:1022D00013465B001344072202FA03F3DB43194061
:1022E0003B6898683B681A6813465B00134400FA21
:1022F00003F27B681B680A431A613B681B68102B5A
:1023000003D03B681B68112B32D17B681B681D4AC8
:10231000934225D17B681B689B6803F40003002B64
:1023200026D17B681B689A687B681B6842F40002B0
:102330009A603B681B68102B1AD1134B1B68134A19
:10234000A2FB03239A0C13469B0013445B00BB6063
:1023500002E0BB68013BBB60BB68002BF9D107E022
:102360007B689B6A43F020027B689A620123FB73BF
:102370007B68002283F82420FB7B18461437BD4677
:1023800080BC7047002401400400002083DE1B4312
:1023900080B584B000AF78600023FB607B681B6869
:1023A0009B6803F00103012B2ED17B681B689A68A0
:1023B0007B681B6822F001029A60FFF7EBFDF86072
:1023C0001BE0FFF7E7FD0246FB68D31A022B14D986
:1023D0007B681B689B6803F00103012B0DD17B68B0
:1023E0009B6A43F010027B689A627B68DB6A43F069
:1023F00001027B68DA62012307E07B681B689B6847
:1024000003F00103012BDCD0002318461037BD4632
:1024100080BD000080B485B000AF78607B6803F0B9
:102420000703FB600C4BDB68BB60BA684FF6FF0329
:102430001340BB60FB681A02BB68134343F0BF63E1
:1024400043F40033BB60044ABB68D36000BF143759
:10245000BD4680BC704700BF00ED00E080B400AF17
:10246000044BDB681B0A03F007031846BD4680BC1B
:10247000704700BF00ED00E080B483B000AF0346BA
:10248000FB7197F90730002B0BDBFB7903F01F0280
:10249000064997F907305B09012000FA02F241F87A
:1024A000232000BF0C37BD4680BC704700E100E030
:1024B00080B483B000AF03463960FB7197F90730F1
:1024C000002B0ADB3B68DAB20C4997F9073012019E
:1024D000D2B20B4483F800230AE03B68DAB2084921
:1024E000FB7903F00F03043B1201D2B20B441A76BE
:1024F00000BF0C37BD4680BC704700BF00E100E064
:1025000000ED00E080B489B000AFF860B9607A6097
:10251000FB6803F00703FB61FB69C3F10703042BAE
:1025200028BF0423BB61FB690433062B02D9FB6976
:10253000033B00E000237B614FF0FF32BB6902FAEE
:1025400003F3DA43BB681A407B699A404FF0FF31CE
:102550007B6901FA03F3D9437B680B4013431846A8
:102560002437BD4680BC704780B582B000AF78602C
:102570007B68013BB3F1807F01D301230FE00A4A5E
:102580007B68013B53600F214FF0FF30FFF790FF56
:10259000054B00229A60044B07221A60002318465C
:1025A0000837BD4680BD00BF10E000E080B582B0B6
:1025B00000AF78607868FFF72DFF00BF0837BD4691
:1025C00080BD80B586B000AF0346B9607A60FB730A
:1025D00000237B61FFF742FF78617A68B968786908
:1025E000FFF790FF024697F90F3011461846FFF7A4
:1025F0005FFF00BF1837BD4680BD80B582B000AF19
:102600000346FB7197F907301846FFF735FF00BF07
:102610000837BD4680BD80B582B000AF786078686D
:10262000FFF7A2FF034618460837BD4680BD80B4B9
:1026300085B000AF78600023FB737B6893F821308E
:10264000DBB2022B08D07B6804229A637B680022ED
:1026500083F82020012320E07B681B681A687B68D0
:102660001B6822F00E021A607B681B681A687B6880
:102670001B6822F001021A607B681A6C7B68DB6BB6
:10268000012101FA02F25A607B68012283F82120BD
:102690007B68002283F82020FB7B18461437BD4658
:1026A00080BC704780B584B000AF78600023FB73B6
:1026B0007B6893F82130DBB2022B05D07B680422C3
:1026C0009A630123FB7351E07B681B681A687B687F
:1026D0001B6822F00E021A607B681B681A687B6810
:1026E0001B6822F001021A607B681B68224A934231
:1026F00029D07B681B68214A934222D07B681B68E3
:102700001F4A93421AD07B681B681E4A934212D01C
:102710007B681B681C4A93420AD07B681B681B4A73
:10272000934202D14FF480130EE04FF080730BE020
:102730004FF4803308E04FF4805305E04FF480738A
:1027400002E0102300E00123114A53607B6801225C
:1027500083F821207B68002283F820207B685B6B54
:10276000002B03D07B685B6B78689847FB7B18462F
:102770001037BD4680BD00BF080002401C0002406B
:102780003000024044000240580002406C00024009
:102790000000024080B48BB000AF78603960002345
:1027A0007B6200233B6269E101227B6A02FA03F348
:1027B000FB613B681B68FA691340BB61BA69FB693E
:1027C0009A4240F058813B685B689A4A93425ED0D7
:1027D000984A934275D8984A934258D0964A934261
:1027E0006FD8964A934252D0944A934269D8944AF9
:1027F00093424CD0924A934263D8924A934246D035
:10280000904A93425DD8122B2AD8122B59D801A294
:1028100052F823F08F280008692800087B28000858
:10282000BD280008C3280008C3280008C3280008E2
:10283000C3280008C3280008C3280008C3280008CC
:10284000C3280008C3280008C3280008C3280008BC
:10285000C3280008C328000871280008852800083C
:10286000794A934213D02CE03B68DB683B6229E055
:102870003B68DB6804333B6224E03B68DB68083379
:102880003B621FE03B68DB680C333B621AE03B684D
:102890009B68002B02D104233B6213E03B689B68DA
:1028A000012B05D108233B627B68FA691A6109E0B4
:1028B00008233B627B68FA695A6103E000233B62AC
:1028C00000E000BFBB69FF2B01D87B6801E07B689B
:1028D00004337B61BB69FF2B02D87B6A9B0002E05B
:1028E0007B6A083B9B003B617B691A680F213B694F
:1028F00001FA03F3DB431A40396A3B6901FA03F337
:102900001A437B691A603B685B6803F08053002BB5
:1029100000F0B1804D4B9B694C4A43F00103936139
:102920004A4B9B6903F00103BB60BB68484A7B6A62
:102930009B08023352F82330FB607B6A03F00303E9
:102940009B000F2202FA03F3DB43FA681340FB609B
:102950007B68404A934213D07B683F4A93420DD034
:102960007B683E4A934207D07B683D4A934201D13F
:10297000032306E0042304E0022302E0012300E035
:1029800000237A6A02F0030292009340FA6813432C
:10299000FB602F497B6A9B080233FA6841F82320C9
:1029A0003B685B6803F48013002B06D02D4B9A68BC
:1029B0002C49BB6913438B6006E02A4B9A68BB69BC
:1029C000DB43284913408B603B685B6803F40013CA
:1029D000002B06D0234BDA682249BB691343CB6036
:1029E00006E0204BDA68BB69DB431E491340CB602D
:1029F0003B685B6803F40033002B06D0194B5A6820
:102A00001849BB6913434B6006E0164B5A68BB6913
:102A1000DB43144913404B603B685B6803F480332D
:102A2000002B21D00F4B1A680E49BB6913430B6072
:102A300021E000BF00003210000031100000221021
:102A400000002110000012100000111000100240C0
:102A50000000014000080140000C0140001001404E
:102A600000140140000401400B4B1A68BB69DB43B2
:102A7000094913400B607B6A01337B623B681A682B
:102A80007B6A22FA03F3002B7FF48EAE00BF00BFF7
:102A90002C37BD4680BC70470004014080B483B031
:102AA00000AF78600B467B8013467B707B78002BF1
:102AB00003D07A887B681A6103E07B881A047B68FC
:102AC0001A6100BF0C37BD4680BC704780B586B028
:102AD00000AF78607B68002B01D1012372E27B6834
:102AE0001B6803F00103002B00F08780924B5B68AA
:102AF00003F00C03042B0CD08F4B5B6803F00C032A
:102B0000082B12D18C4B5B6803F48033B3F5803F04
:102B10000BD1894B1B6803F40033002B6CD07B680E
:102B20005B68002B68D101234CE27B685B68B3F5DE
:102B3000803F06D1804B1B687F4A43F4803313608B
:102B40002EE07B685B68002B0CD17B4B1B687A4ABC
:102B500023F480331360784B1B68774A23F4802377
:102B600013601DE07B685B68B3F5A02F0CD1724B3E
:102B70001B68714A43F4802313606F4B1B686E4AD5
:102B800043F4803313600BE06B4B1B686A4A23F4F9
:102B900080331360684B1B68674A23F480231360FB
:102BA0007B685B68002B13D0FFF7F4F9386108E00D
:102BB000FFF7F0F902463B69D31A642B01D90323CE
:102BC00000E25D4B1B6803F40033002BF0D014E0EF
:102BD000FFF7E0F9386108E0FFF7DCF902463B69EE
:102BE000D31A642B01D90323ECE1534B1B6803F484
:102BF0000033002BF0D100E000BF7B681B6803F0BE
:102C00000203002B63D04C4B5B6803F00C03002BDA
:102C10000BD0494B5B6803F00C03082B1CD1464BCF
:102C20005B6803F48033002B16D1434B1B6803F021
:102C30000203002B05D07B681B69012B01D0012307
:102C4000C0E13D4B1B6823F0F8027B685B69DB0049
:102C5000394913430B603AE07B681B69002B20D095
:102C6000364B01221A60FFF795F9386108E0FFF74B
:102C700091F902463B69D31A022B01D90323A1E142
:102C80002D4B1B6803F00203002BF0D02A4B1B686E
:102C900023F0F8027B685B69DB00274913430B6074
:102CA00015E0264B00221A60FFF774F9386108E03E
:102CB000FFF770F902463B69D31A022B01D90323AF
:102CC00080E11D4B1B6803F00203002BF0D17B68F1
:102CD0001B6803F00803002B3AD07B689B69002B2C
:102CE00019D0174B01221A60FFF754F9386108E038
:102CF000FFF750F902463B69D31A022B01D903238F
:102D000060E10D4B5B6A03F00203002BF0D0012061
:102D100000F0CEFA1CE00A4B00221A60FFF73AF9E5
:102D200038610FE0FFF736F902463B69D31A022BF0
:102D300008D9032346E100BF0010024000004242D0
:102D400080044242924B5B6A03F00203002BE9D1FC
:102D50007B681B6803F00403002B00F0A6800023AF
:102D6000FB758B4BDB6903F08053002B0DD1884B37
:102D7000DB69874A43F08053D361854BDB6903F0FD
:102D80008053BB60BB680123FB75824B1B6803F457
:102D90008073002B18D17F4B1B687E4A43F48073ED
:102DA0001360FFF7F7F8386108E0FFF7F3F8024621
:102DB0003B69D31A642B01D9032303E1754B1B68CC
:102DC00003F48073002BF0D07B68DB68012B06D105
:102DD0006F4B1B6A6E4A43F0010313622DE07B6860
:102DE000DB68002B0CD16A4B1B6A694A23F0010394
:102DF0001362674B1B6A664A23F0040313621CE0EC
:102E00007B68DB68052B0CD1614B1B6A604A43F081
:102E1000040313625E4B1B6A5D4A43F001031362B5
:102E20000BE05B4B1B6A5A4A23F001031362584BB9
:102E30001B6A574A23F0040313627B68DB68002B8C
:102E400015D0FFF7A7F838610AE0FFF7A3F80246AC
:102E50003B69D31A41F28832934201D90323B1E08E
:102E60004B4B1B6A03F00203002BEED014E0FFF77C
:102E700091F838610AE0FFF78DF802463B69D31AF2
:102E800041F28832934201D903239BE0404B1B6AF5
:102E900003F00203002BEED1FB7D012B05D13C4B4F
:102EA000DB693B4A23F08053D3617B68DB69002BED
:102EB00000F08780364B5B6803F00C03082B61D071
:102EC0007B68DB69022B46D1334B00221A60FFF787
:102ED00061F8386108E0FFF75DF802463B69D31AF4
:102EE000022B01D903236DE0294B1B6803F000730B
:102EF000002BF0D17B681B6AB3F5803F08D1244BCF
:102F00005B6823F400327B689B68214913434B6064
:102F10001F4B5B6823F474127B68196A7B685B6AD9
:102F20000B431B4913434B601B4B01221A60FFF7F5
:102F300031F8386108E0FFF72DF802463B69D31AF3
:102F4000022B01D903233DE0114B1B6803F00073F2
:102F5000002BF0D035E0104B00221A60FFF71AF872
:102F6000386108E0FFF716F802463B69D31A022BD6
:102F700001D9032326E0064B1B6803F00073002BE6
:102F8000F0D11EE07B68DB69012B07D1012319E03A
:102F90000010024000700040600042420B4B5B6832
:102FA000FB60FB6803F480327B681B6A9A4206D19F
:102FB000FB6803F470127B685B6A9A4201D00123BC
:102FC00000E0002318461837BD4680BD00100240BF
:102FD00080B584B000AF786039607B68002B01D188
:102FE0000123D0E06A4B1B6803F007033A689A425A
:102FF00010D9674B1B6823F0070265493B681343F0
:103000000B60634B1B6803F007033A689A4201D0D8
:103010000123B8E07B681B6803F00203002B20D07B
:103020007B681B6803F00403002B05D0594B5B68D9
:10303000584A43F4E06353607B681B6803F008035D
:10304000002B05D0534B5B68524A43F460535360E6
:10305000504B5B6823F0F0027B689B684D4913433B
:103060004B607B681B6803F00103002B40D07B683A
:103070005B68012B07D1474B1B6803F40033002B1F
:1030800015D101237FE07B685B68022B07D1414BA0
:103090001B6803F00073002B09D1012373E03D4B43
:1030A0001B6803F00203002B01D101236BE0394BB5
:1030B0005B6823F003027B685B68364913434B600F
:1030C000FEF768FFF8600AE0FEF764FF0246FB685F
:1030D000D31A41F28832934201D9032353E02D4B96
:1030E0005B6803F00C027B685B689B009A42EBD143
:1030F000274B1B6803F007033A689A4210D2244B0F
:103100001B6823F0070222493B6813430B60204BE6
:103110001B6803F007033A689A4201D0012332E0AA
:103120007B681B6803F00403002B08D0194B5B6815
:1031300023F4E0627B68DB68164913434B607B68CD
:103140001B6803F00803002B09D0124B5B6823F4C3
:1031500060527B681B69DB000E4913434B6000F033
:1031600021F802460B4B5B681B0903F00F030A4969
:10317000CB5C22FA03F3094A1360094B1B6818461B
:10318000FEF7C6FE002318461037BD4680BD00BFBF
:103190000020024000100240407B00080400002094
:1031A0000800002080B487B000AF0023FB6000233C
:1031B000BB6000237B6100237B6000233B611E4BCF
:1031C0005B68FB60FB6803F00C03042B02D0082B48
:1031D00003D027E0194B3B6127E0FB689B0C03F011
:1031E0000F03174AD35C7B60FB6803F48033002B2A
:1031F00010D0114B5B685B0C03F00103114AD35CE8
:10320000BB607B680D4A03FB02F2BB68B2FBF3F3C1
:103210007B6104E07B680C4A02FB03F37B617B6902
:103220003B6102E0054B3B6100BF3B6918461C3720
:10323000BD4680BC704700BF0010024000127A00FB
:10324000587B0008687B000800093D0080B400AF8F
:10325000024B1B681846BD4680BC70470400002026
:1032600080B500AFFFF7F2FF0246054B5B681B0A13
:1032700003F007030349CB5C22FA03F3184680BD31
:1032800000100240507B000880B500AFFFF7DEFF62
:103290000246054B5B68DB0A03F007030349CB5C7E
:1032A00022FA03F3184680BD00100240507B00084C
:1032B00080B485B000AF78600A4B1B680A4AA2FB55
:1032C00003235B0A7A6802FB03F3FB6000BFFB6821
:1032D0005A1EFA60002BF9D100BF00BF1437BD465B
:1032E00080BC704704000020D34D621080B586B0CA
:1032F00000AF786000233B610023FB607B681B68A4
:1033000003F00103002B7DD00023FB754F4BDB69DD
:1033100003F08053002B0DD14C4BDB694B4A43F03B
:103320008053D361494BDB6903F08053BB60BB68BA
:103330000123FB75464B1B6803F48073002B18D1E7
:10334000434B1B68424A43F480731360FEF722FE2E
:10335000386108E0FEF71EFE02463B69D31A642B73
:1033600001D903236DE03A4B1B6803F48073002BF3
:10337000F0D0364B1B6A03F44073FB60FB68002BF4
:103380002ED07B685B6803F44073FA689A4227D0BA
:103390002E4B1B6A23F44073FB602E4B01221A60F4
:1033A0002C4B00221A60294AFB681362FB6803F069
:1033B0000103002B14D0FEF7EDFD38610AE0FEF7A3
:1033C000E9FD02463B69D31A41F28832934201D9A2
:1033D000032336E01D4B1B6A03F00203002BEED0E3
:1033E0001A4B1B6A23F440727B685B6817491343CE
:1033F0000B62FB7D012B05D1144BDB69134A23F0D3
:103400008053D3617B681B6803F00203002B08D054
:103410000E4B5B6823F440427B689B680B49134367
:103420004B607B681B6803F01003002B08D0074B30
:103430005B6823F480027B68DB68044913434B60BC
:10344000002318461837BD4680BD00BF001002405B
:10345000007000404004424280B485B000AF786004
:103460007B6893F83D30DBB2012B01D001233AE0B9
:103470007B68022283F83D207B681B68DA687B68E2
:103480001B6842F00102DA607B681B68184A9342AD
:103490000ED07B681B68B3F1804F09D07B681B6836
:1034A000144A934204D07B681B68134A934211D19B
:1034B0007B681B689B6803F00703FB60FB68062BB7
:1034C00010D07B681B681A687B681B6842F0010299
:1034D0001A6007E07B681B681A687B681B6842F00B
:1034E00001021A60002318461437BD4680BC70479D
:1034F000002C0140000400400008004080B582B06C
:1035000000AF78607B68002B01D1012341E07B682C
:1035100093F83D30DBB2002B06D17B68002283F8A4
:103520003C207868FEF7EAFB7B68022283F83D20A6
:103530007B681A687B6804331946104600F0E0F98E
:103540007B68012283F846207B68012283F83E20B5
:103550007B68012283F83F207B68012283F84020AA
:103560007B68012283F841207B68012283F8422096
:103570007B68012283F843207B68012283F8442082
:103580007B68012283F845207B68012283F83D2077
:10359000002318460837BD4680BD000080B584B0C2
:1035A00000AF786039600023FB733B68002B09D1C2
:1035B0007B6893F83E30DBB2012B14BF012300235C
:1035C000DBB222E03B68042B09D17B6893F83F30E3
:1035D000DBB2012B14BF01230023DBB215E03B68F3
:1035E000082B09D17B6893F84030DBB2012B14BF64
:1035F00001230023DBB208E07B6893F84130DBB2A3
:10360000012B14BF01230023DBB2002B01D00123C7
:10361000A9E03B68002B04D17B68022283F83E209E
:1036200013E03B68042B04D17B68022283F83F201F
:103630000BE03B68082B04D17B68022283F8402012
:1036400003E07B68022283F841203B680C2B41D8C1
:1036500001A252F823F000BF8D360008D5360008CD
:10366000D5360008D53600089F360008D536000844
:10367000D5360008D5360008B1360008D536000822
:10368000D5360008D5360008C33600087B681B68AD
:10369000DA687B681B6842F00202DA601DE07B6832
:1036A0001B68DA687B681B6842F00402DA6014E089
:1036B0007B681B68DA687B681B6842F00802DA6086
:1036C0000BE07B681B68DA687B681B6842F01002BD
:1036D000DA6002E00123FB7300BFFB7B002B41D1CA
:1036E0007B681B6801223968184600F0F3FA7B6892
:1036F0001B681F4A934207D17B681B685A6C7B6822
:103700001B6842F400425A647B681B68184A934263
:103710000ED07B681B68B3F1804F09D07B681B68B3
:10372000144A934204D07B681B68134A934211D118
:103730007B681B689B6803F00703BB60BB68062BB4
:1037400010D07B681B681A687B681B6842F0010216
:103750001A6007E07B681B681A687B681B6842F088
:1037600001021A60FB7B18461037BD4680BD00BFC2
:10377000002C0140000400400008004080B586B0E5
:1037800000AFF860B9607A600023FB75FB6893F8BE
:103790003C30012B01D10223AEE0FB68012283F80B
:1037A0003C207B680C2B00F29F8001A252F823F092
:1037B000E5370008E9380008E9380008E93800086A
:1037C00025380008E9380008E9380008E938000819
:1037D00067380008E9380008E9380008E9380008C7
:1037E000A7380008FB681B68B968184600F0EAF8BB
:1037F000FB681B689A69FB681B6842F008029A61C3
:10380000FB681B689A69FB681B6822F004029A61D6
:10381000FB681B689969BB681A69FB681B680A43E7
:103820009A6164E0FB681B68B968184600F030F9DB
:10383000FB681B689A69FB681B6842F400629A6126
:10384000FB681B689A69FB681B6822F480629A61B6
:10385000FB681B689969BB681B691A02FB681B68D7
:103860000A439A6143E0FB681B68B968184600F098
:1038700079F9FB681B68DA69FB681B6842F008028B
:10388000DA61FB681B68DA69FB681B6822F00402D6
:10389000DA61FB681B68D969BB681A69FB681B6839
:1038A0000A43DA6123E0FB681B68B968184600F038
:1038B000C3F9FB681B68DA69FB681B6842F40062A5
:1038C000DA61FB681B68DA69FB681B6822F48062B6
:1038D000DA61FB681B68D969BB681B691A02FB685F
:1038E0001B680A43DA6102E00123FB7500BFFB6835
:1038F000002283F83C20FB7D18461837BD4680BD6A
:1039000080B485B000AF786039607B681B68FB606D
:103910007B68294A93420BD07B68B3F1804F07D074
:103920007B68264A934203D07B68254A934208D19C
:10393000FB6823F07003FB603B685B68FA68134325
:10394000FB607B681C4A93420BD07B68B3F1804FCD
:1039500007D07B68194A934203D07B68184A934288
:1039600008D1FB6823F44073FB603B68DB68FA68AE
:103970001343FB60FB6823F080023B685B691343E1
:10398000FB607B68FA681A603B689A687B68DA6259
:103990003B681A687B689A627B68074A934203D146
:1039A0003B681A697B681A637B6801225A6100BF11
:1039B0001437BD4680BC7047002C01400004004015
:1039C0000008004080B487B000AF786039607B6841
:1039D0001B6A7B617B681B6A23F001027B681A62A9
:1039E0007B685B683B617B689B69FB60FB6823F0DD
:1039F0007003FB60FB6823F00303FB603B681B68FC
:103A0000FA681343FB607B6923F002037B613B6828
:103A10009B687A6913437B617B681C4A93420CD193
:103A20007B6923F008037B613B68DB687A69134399
:103A30007B617B6923F004037B617B68134A9342BB
:103A400011D13B6923F480733B613B6923F400731C
:103A50003B613B685B693A6913433B613B689B6927
:103A60003A6913433B617B683A695A607B68FA683C
:103A70009A613B685A687B685A637B687A691A6204
:103A800000BF1C37BD4680BC704700BF002C014002
:103A900080B487B000AF786039607B681B6A7B6157
:103AA0007B681B6A23F010027B681A627B685B6884
:103AB0003B617B689B69FB60FB6823F4E043FB6030
:103AC000FB6823F44073FB603B681B681B02FA68C9
:103AD0001343FB607B6923F020037B613B689B6899
:103AE0001B017A6913437B617B681D4A93420DD1A8
:103AF0007B6923F080037B613B68DB681B017A698B
:103B000013437B617B6923F040037B617B68144A2C
:103B1000934213D13B6923F480633B613B6923F4F7
:103B200000633B613B685B699B003A6913433B61FF
:103B30003B689B699B003A6913433B617B683A6928
:103B40005A607B68FA689A613B685A687B689A6336
:103B50007B687A691A6200BF1C37BD4680BC70471B
:103B6000002C014080B487B000AF786039607B687A
:103B70001B6A7B617B681B6A23F480727B681A6214
:103B80007B685B683B617B68DB69FB60FB6823F0FB
:103B90007003FB60FB6823F00303FB603B681B685A
:103BA000FA681343FB607B6923F400737B613B6815
:103BB0009B681B027A6913437B617B681D4A9342B1
:103BC0000DD17B6923F400637B613B68DB681B02DA
:103BD0007A6913437B617B6923F480637B617B6833
:103BE000144A934213D13B6923F480533B613B69F0
:103BF00023F400533B613B685B691B013A69134343
:103C00003B613B689B691B013A6913433B617B68DD
:103C10003A695A607B68FA68DA613B685A687B687F
:103C2000DA637B687A691A6200BF1C37BD4680BCC4
:103C3000704700BF002C014080B487B000AF7860AF
:103C400039607B681B6A3B617B681B6A23F4805286
:103C50007B681A627B685B687B617B68DB69FB6001
:103C6000FB6823F4E043FB60FB6823F44073FB60D4
:103C70003B681B681B02FA681343FB603B6923F433
:103C800000533B613B689B681B033A6913433B61EC
:103C90007B680F4A934209D17B6923F480437B619F
:103CA0003B685B699B017A6913437B617B687A6936
:103CB0005A607B68FA68DA613B685A687B681A6404
:103CC0007B683A691A6200BF1C37BD4680BC7047EA
:103CD000002C014080B487B000AFF860B9607A6012
:103CE000BB6803F01F03012202FA03F37B61FB6848
:103CF0001A6A7B69DB431A40FB681A62FB681A6A1E
:103D0000BB6803F01F03796801FA03F31A43FB68E9
:103D10001A6200BF1C37BD4680BC704780B485B0B6
:103D200000AF786039607B6893F83C30012B01D19B
:103D3000022346E07B68012283F83C207B68022254
:103D400083F83D207B681B685B68FB607B681B68B1
:103D50009B68BB60FB6823F07003FB603B681B68DB
:103D6000FA681343FB607B681B68FA685A607B68DB
:103D70001B68164A93420ED07B681B68B3F1804FD4
:103D800009D07B681B68124A934204D07B681B6889
:103D9000104A93420CD1BB6823F08003BB603B68A0
:103DA0005B68BA681343BB607B681B68BA689A603B
:103DB0007B68012283F83D207B68002283F83C2049
:103DC000002318461437BD4680BC7047002C0140C4
:103DD000000400400008004080B582B000AF786069
:103DE0007B68002B01D1012342E07B6893F84130CE
:103DF000DBB2002B06D17B68002283F84020786874
:103E0000FDF7F6FF7B68242283F841207B681B685E
:103E1000DA687B681B6822F40052DA60786800F088
:103E2000FBFD7B681B681A697B681B6822F4904263
:103E30001A617B681B685A697B681B6822F02A023A
:103E40005A617B681B68DA687B681B6842F4005221
:103E5000DA607B6800225A647B68202283F8412064
:103E60007B68202283F842207B6800225A6300236B
:103E700018460837BD4680BD80B58AB002AFF860ED
:103E8000B9603B601346FB8000237B61FB6893F8BD
:103E90004130DBB2202B6DD1BB68002B02D0FB88F8
:103EA000002B01D1012366E0FB6800225A64FB6805
:103EB000212283F84120FEF76DF87861FB68FA88CB
:103EC0009A84FB68FA88DA84FB689B68B3F5805FA4
:103ED00008D1FB681B69002B04D10023FB61BB6880
:103EE000BB6103E0BB68FB610023BB612AE03B6868
:103EF00000937B6900228021F86800F04AFB0346AA
:103F0000002B01D0032336E0FB69002B0BD1BB69EA
:103F10001B881A46FB681B68C2F308025A60BB691B
:103F20000233BB6107E0FB691A78FB681B685A60C3
:103F3000FB690133FB61FB68DB8C9BB2013B9AB2EE
:103F4000FB68DA84FB68DB8C9BB2002BCFD13B682B
:103F500000937B6900224021F86800F01AFB0346B9
:103F6000002B01D0032306E0FB68202283F84120C8
:103F7000002300E0022318462037BD4680BD80B4F0
:103F800085B000AFF860B9601346FB80FB6893F81A
:103F90004130DBB2202B21D1BB68002B02D0FB8843
:103FA000002B01D101231AE0FB68BA681A62FB6892
:103FB000FA889A84FB68FA88DA84FB6800225A64DB
:103FC000FB68212283F84120FB681B68DA68FB68E4
:103FD0001B6842F08002DA60002300E002231846EA
:103FE0001437BD4680BC704780B584B000AFF86020
:103FF000B9601346FB80FB6893F84230DBB2202B9C
:1040000012D1BB68002B02D0FB88002B01D1012309
:104010000BE0FB6800221A63FB881A46B968F8684F
:1040200000F025FB034600E0022318461037BD468A
:1040300080BD000080B5BAB000AF78607B681B68B7
:104040001B68C7F8E4307B681B68DB68C7F8E030A2
:104050007B681B685B69C7F8DC300023C7F8D83081
:104060000023C7F8D430D7F8E43003F00F03C7F8C3
:10407000D830D7F8D830002B0FD1D7F8E43003F080
:104080002003002B09D0D7F8E03003F02003002BE9
:1040900003D0786800F001FC5BE2D7F8D830002B41
:1040A00000F0DE80D7F8DC3003F00103002B06D1EE
:1040B000D7F8E03003F49073002B00F0D180D7F8EC
:1040C000E43003F00103002B0BD0D7F8E03003F409
:1040D0008073002B05D07B685B6C43F001027B682A
:1040E0005A64D7F8E43003F00403002B0BD0D7F860
:1040F000DC3003F00103002B05D07B685B6C43F0E0
:1041000002027B685A64D7F8E43003F00203002B04
:104110000BD0D7F8DC3003F00103002B05D07B680F
:104120005B6C43F004027B685A64D7F8E43003F018
:104130000803002B11D0D7F8E03003F02003002B48
:1041400005D1D7F8DC3003F00103002B05D07B68E4
:104150005B6C43F008027B685A647B685B6C002BE5
:1041600000F0F281D7F8E43003F02003002B08D0F0
:10417000D7F8E03003F02003002B02D0786800F07D
:104180008CFB7B681B685B6903F04003002B14BF4A
:1041900001230023DBB2C7F8D4307B685B6C03F0EB
:1041A0000803002B03D1D7F8D430002B4FD0786808
:1041B00000F096FA7B681B685B6903F04003002BF4
:1041C00041D07B681B681433C7F89C30D7F89C300B
:1041D00053E8003FC7F89830D7F8983023F04003F1
:1041E000C7F8D0307B681B681433D7F8D020C7F8E5
:1041F000A820C7F8A430D7F8A410D7F8A82041E821
:104200000023C7F8A030D7F8A030002BD9D17B68A5
:10421000DB6B002B13D07B68DB6B7E4A5A637B68B9
:10422000DB6B1846FEF73EFA0346002B16D07B6880
:10423000DB6B5B6B7A68D26B104698470EE0786850
:1042400000F093F90AE0786800F08FF906E07868EA
:1042500000F08BF97B6800225A6475E100BF73E1BE
:104260007B681B6B012B40F04F81D7F8E43003F0E3
:104270001003002B00F04881D7F8E03003F0100362
:10428000002B00F041810023BB607B681B681B682A
:10429000BB607B681B685B68BB60BB687B681B6836
:1042A0005B6903F04003002B00F0B6807B68DB6B9A
:1042B0001B685B68A7F8BE30B7F8BE30002B00F073
:1042C00045817B689B8DB7F8BE209A4280F03E8185
:1042D0007B68B7F8BE20DA857B68DB6B9B69202B97
:1042E00000F088807B681B680C33C7F88830D7F8EB
:1042F000883053E8003FC7F88430D7F8843023F47F
:104300008073C7F8B8307B681B680C33D7F8B820C7
:10431000C7F89420C7F89030D7F89010D7F89420B9
:1043200041E80023C7F88C30D7F88C30002BD9D166
:104330007B681B6814337B677B6F53E8003F3B67E8
:104340003B6F23F00103C7F8B4307B681B6814335C
:10435000D7F8B420C7F88020FB67F96FD7F8802022
:1043600041E80023BB67BB6F002BE1D17B681B6872
:1043700014333B663B6E53E8003FFB65FB6D23F057
:104380004003C7F8B0307B681B681433D7F8B020FF
:10439000FA66BB66B96EFA6E41E800237B667B6EF7
:1043A000002BE3D17B68202283F842207B68002227
:1043B0001A637B681B680C33FB64FB6C53E8003F9B
:1043C000BB64BB6C23F01003C7F8AC307B681B6880
:1043D0000C33D7F8AC20BA657B65796DBA6D41E8CE
:1043E00000233B653B6D002BE3D17B68DB6B1846FC
:1043F000FEF71DF97B6802225A637B689A8D7B6801
:10440000DB8D9BB2D31A9BB21946786800F0B6F8E0
:104410009CE000BFA54700087B689A8D7B68DB8D18
:104420009BB2D31AA7F8CE307B68DB8D9BB2002BF2
:1044300000F08E80B7F8CE30002B00F089807B68CA
:104440001B680C33BB63BB6B53E8003F7B637B6B28
:1044500023F49073C7F8C8307B681B680C33D7F817
:10446000C8207A643B64396C7A6C41E80023FB63B2
:10447000FB6B002BE3D17B681B6814337B627B6A88
:1044800053E8003F3B623B6A23F00103C7F8C430A6
:104490007B681B681433D7F8C4203A63FB62F96A5F
:1044A0003A6B41E80023BB62BB6A002BE3D17B6817
:1044B000202283F842207B6800221A637B681B68F5
:1044C0000C333B613B6953E8003FFB60FB6823F022
:1044D0001003C7F8C0307B681B680C33D7F8C020C6
:1044E000FA61BB61B969FA6941E800237B617B69C4
:1044F000002BE3D17B6802225A63B7F8CE3019460D
:10450000786800F03BF823E0D7F8E43003F080034C
:10451000002B09D0D7F8E03003F08003002B03D044
:10452000786800F053F914E0D7F8E43003F0400362
:10453000002B0ED0D7F8E03003F04003002B08D05A
:10454000786800F092F904E000BF02E000BF00E0EC
:1045500000BFE837BD4680BD80B483B000AF78604F
:1045600000BF0C37BD4680BC704780B483B000AF3D
:10457000786000BF0C37BD4680BC704780B483B004
:1045800000AF78600B467B8000BF0C37BD4680BC17
:10459000704780B590B000AFF860B9603B601346DB
:1045A000FB7150E0BB6CB3F1FF3F4CD0BB6C002BF8
:1045B00007D0FDF7EFFC02463B68D31ABA6C9A426B
:1045C00041D2FB681B680C33BB62BB6A53E8003FF7
:1045D0007B627B6A23F4D073FB63FB681B680C333C
:1045E000FA6B7A633B63396B7A6B41E80023FB62B9
:1045F000FB6A002BE5D1FB681B6814337B617B6988
:1046000053E8003F3B613B6923F00103BB63FB6858
:104610001B681433BA6B3A62FB61F9693A6A41E884
:104620000023BB61BB69002BE5D1FB68202283F826
:104630004120FB68202283F84220FB68002283F897
:10464000402003230FE0FB681B681A68BB68134017
:10465000BA689A420CBF01230023DBB21A46FB79E9
:104660009A429FD0002318464037BD4680BD80B493
:1046700085B000AFF860B9601346FB80FB68BA688C
:104680009A62FB68FA889A85FB68FA88DA85FB6883
:1046900000225A64FB68222283F84220FB681B69CF
:1046A000002B07D0FB681B68DA68FB681B6842F4C4
:1046B0008072DA60FB681B685A69FB681B6842F00D
:1046C00001025A61FB681B68DA68FB681B6842F0EC
:1046D0002002DA60002318461437BD4680BC7047BC
:1046E00080B495B000AF78607B681B680C337B6347
:1046F0007B6B53E8003F3B633B6B23F49073FB649D
:104700007B681B680C33FA6C3A64FB63F96B3A6C98
:1047100041E80023BB63BB6B002BE5D17B681B68C2
:1047200014333B623B6A53E8003FFB61FB6923F0B3
:104730000103BB647B681B681433BA6CFA62BB620A
:10474000B96AFA6A41E800237B627B6A002BE5D1F3
:104750007B681B6B012B19D17B681B680C33FB60DA
:10476000FB6853E8003FBB60BB6823F010037B6429
:104770007B681B680C337A6CBA617B617969BA69B2
:1047800041E800233B613B69002BE5D17B68202297
:1047900083F842207B6800221A6300BF5437BD466D
:1047A00080BC704780B584B000AF78607B685B6A7E
:1047B000FB60FB680022DA85FB680022DA84F86877
:1047C000FFF7D3FE00BF1037BD4680BD80B485B073
:1047D00000AF78607B6893F84130DBB2212B3ED18B
:1047E0007B689B68B3F5805F14D17B681B69002BE5
:1047F00010D17B681B6AFB60FB681B881A467B68CC
:104800001B68C2F308025A607B681B6A9A1C7B68AB
:104810001A6208E07B681B6A591C7A6811621A7870
:104820007B681B685A607B68DB8C9BB2013B9BB248
:104830007A681946D184002B0FD17B681B68DA682F
:104840007B681B6822F08002DA607B681B68DA688C
:104850007B681B6842F04002DA60002300E002231C
:1048600018461437BD4680BC704780B582B000AF93
:1048700078607B681B68DA687B681B6822F04002FE
:10488000DA607B68202283F841207868FFF764FEB5
:10489000002318460837BD4680BD80B58CB000AFF8
:1048A00078607B6893F84230DBB2222B40F0AE8018
:1048B0007B689B68B3F5805F17D17B681B69002B11
:1048C00013D10023FB627B689B6ABB627B681B6819
:1048D0005B689BB2C3F308039AB2BB6A1A807B6819
:1048E0009B6A9A1C7B689A6226E07B689B6AFB62E3
:1048F0000023BB627B689B68B3F5805F07D07B6851
:104900009B68002B0AD17B681B69002B06D17B6852
:104910001B685B68DAB2FB6A1A7008E07B681B6888
:104920005B68DBB203F07F03DAB2FB6A1A707B6864
:104930009B6A5A1C7B689A627B68DB8D9BB2013B49
:104940009BB27A681946D185002B5DD17B681B68C4
:10495000DA687B681B6822F02002DA607B681B68DB
:10496000DA687B681B6822F48072DA607B681B68F7
:104970005A697B681B6822F001025A617B68202219
:1049800083F842207B6800225A637B681B6B012BF3
:1049900035D17B6800221A637B681B680C337B610E
:1049A0007B6953E8003F3B613B6923F010037B6266
:1049B0007B681B680C337A6A3A62FB61F9693A6A70
:1049C00041E80023BB61BB69002BE5D17B681B6814
:1049D0001B6803F01003102B0AD10023FB607B68D7
:1049E0001B681B68FB607B681B685B68FB60FB687F
:1049F0007B689B8D19467868FFF7C0FD02E07868F8
:104A0000FCF7E4FB002302E0002300E00223184649
:104A10003037BD4680BD000080B584B000AF7860FF
:104A20007B681B681B6923F440517B68DA687B68EC
:104A30001B680A431A617B689A687B681B691A4382
:104A40007B685B691343BB607B681B68DB6823F48E
:104A5000B05323F00C037A681268B9680B43D36033
:104A60007B681B685B6923F440717B689A697B688B
:104A70001B680A435A617B681B682C4A934203D126
:104A8000FEF702FCF86002E0FEF7EAFBF860FA6865
:104A900013469B0013449A001A447B685B689B0092
:104AA000B2FBF3F3224AA2FB03235B091901FA6864
:104AB00013469B0013449A001A447B685B689B0072
:104AC000B2FBF3F21A4BA3FB02035B09642000FB69
:104AD00003F3D31A1B013233154AA2FB03235B09EC
:104AE00003F0F0031944FA6813469B0013449A003C
:104AF0001A447B685B689B00B2FBF3F20C4BA3FB90
:104B000002035B09642000FB03F3D31A1B01323359
:104B1000074AA2FB03235B0903F00F027B681B68B3
:104B20000A449A6000BF1037BD4680BD003801407E
:104B30001F85EB51002100F07BBE0A22002100F00E
:104B4000FFBE0000014B1868704700BF1000002036
:104B500070B500260C4D0D4C641BA410A64209D163
:104B600002F072FF00260A4D0A4C641BA410A642F4
:104B700005D170BD55F8043B98470136EEE755F86E
:104B8000043B98470136F2E79C7F00089C7F0008B1
:104B90009C7F0008A07F000803460244934200D196
:104BA000704703F8011BF9E7024610B51478134665
:104BB0000132002CFAD1013B11F8012B03F8012F2F
:104BC000002AF9D110BD0346C9B2184613F8012BCB
:104BD00012B18A42F9D17047002918BF00207047EE
:104BE000034611F8012B03F8012B002AF9D1704775
:104BF0000A7870B56AB970BD9A4209D10C4605466B
:104C000014F8013F002BF6D015F8016F9E42F7D043
:104C100001300378002BEFD11846ECE72DE9F04185
:104C20000F46904601F08CFD04460D46B8F1000F8A
:104C300011D0C7F30A53C3F16B03002B0BDD002423
:104C40001B0503F17F5505F5401522462B46FBF762
:104C500043FC04460D4620462946BDE8F08100008D
:104C60002DE9F04F9B4600239FB01A939E4B82463E
:104C70001F680E4638461592FBF76AFA4FF0000897
:104C800004464FF000091996199B1A782B2A4CD02C
:104C90003AD80D2A33D8082A33D8002A3DD0002329
:104CA0000A93199D2B78302B40F0AA806B7803F083
:104CB000DF03582B66D10A9B504601931AAB009331
:104CC0008A4ACDF808B01BAB19A900F0ABFE10F072
:104CD0000706044605D0062E29D100230135199573
:104CE0000A93159B002B40F08A850A9BD3B142465C
:104CF00009F10043104619461FB0BDE8F08F202A85
:104D0000CDD101331993BFE72D2AC8D101220A92D0
:104D10005A1C19925B78002BC3D1159B1996002B56
:104D200040F06B8542464B46E4E70022EFE71A9AD3
:104D30003AB135211CA801F007FE50461A9901F03E
:104D4000CFF9013E042E06D8DFE806F00A03141757
:104D50000A00DDE91C892107C3D549F00049C0E7F5
:104D60001B9ADDE91C8302F2334223F4801343EAE9
:104D70000259F0E7DFF87891EDE76FF000494FF066
:104D8000FF38E8E7199B5A1C19925B78302BF9D051
:104D9000002BA6D001230793199B0A220893002316
:104DA0009B46CDE9053319980578A5F13003D9B2B2
:104DB000092927D92246394601F0C8FE002833D0F8
:104DC00000202A465C4603460490652A01D0452A05
:104DD00014D11CB9079A02439FD00024199E721C5B
:104DE000199272782B2A79D02D2A00F0838000271F
:104DF000A2F13001092940F28380199600259FE035
:104E00000023C8E7BBF1080FD5BF0699059902FB3F
:104E1000013302FB013300F10100D4BF0693059377
:104E20000BF1010B1990BEE7199B1A1919921A5D23
:104E3000BBF1000F36D05C460490A2F13003092B81
:104E400012D90123C1E7199B01305A1C19925A78D3
:104E5000302AF8D0A2F13103082B00F2D584049057
:104E600000200446199B0893303A00F1010313D047
:104E7000049905191944049123460A21AB4213D120
:104E80002318082B04F1010404441BDC0A230699AF
:104E900003FB012306930023199A1846511C19910C
:104EA0005278CAE75846D3E7082B04DC069F4F43E5
:104EB00006970133E2E75F1C102FDEBF059F4F43CB
:104EC0000597F6E7102CDFBF0A23059903FB0123A2
:104ED0000593E0E70023049301237BE70027B21C3E
:104EE0001992B27884E700BF487D00087C7B0008F7
:104EF0000000F07F0127F2E7199A511C19915278AE
:104F0000302AF9D0A2F1310108293FF677AF4FF0EE
:104F10000A0EA2F1300C199A0992199A511C199192
:104F20005278A2F13005092D35D9099D491B082970
:104F300044F61F6502DC6545A8BF654607B16D42B2
:104F4000002C4CD1079901437FF4CBAE002B7FF4AA
:104F5000E4AE692A26D023DC492A23D04E2A7FF4E6
:104F6000DCAE9D4919A800F0ABFF00283FF4D5AE98
:104F7000199B1B78282B2CD198491CAA19A800F042
:104F8000B3FF052825D11D9BDDF8708043F0FF4954
:104F900049F4E009A5E60EFB0C2CACF1300CBCE7A3
:104FA0006E2ADCE78E4919A800F08AFF00283FF43A
:104FB000B4AE199B8B49013B19A8199300F080FFEF
:104FC00010B9199B013319934FF00008DFF81892BC
:104FD00087E6864801F0A4FD8046894681E6049B69
:104FE000BBF1000F08BFA346EB1A102C069826460B
:104FF0000793A8BF1026FBF7F5F9092C80468946D0
:1050000013DD7B4B03EBC60353E91223FBF764FA72
:10501000804605988946FBF7E5F902460B4640466F
:105020004946FBF7A3F8804689460F2C36DC079BE0
:10503000002B3FF456AE22DD162B09DC6C494246AC
:1050400001EBC3014B46D1E90001FBF745FAC3E789
:10505000079AC4F12503934220DB654DC4F10F0488
:1050600005EBC4014246D1E900014B46FBF734FA97
:10507000079B1C1B05EBC405D5E90023E5E7079B4F
:1050800016330BDB049B40465D1B594B494603EB33
:10509000C505D5E90023FBF749FB9DE7079BA61B48
:1050A0001E44002E74DD16F00F030AD0504942460C
:1050B00001EBC301D1E900014B46FBF70DFA804635
:1050C000894636F00F0652D0B6F59A7F27DD4FF0AD
:1050D000000BCDF810B0CDF820B0CDF818B02223D9
:1050E0004FF00008DFF80091CAF80030089B002B51
:1050F0003FF4F7AD50461A9900F0F2FF504606997A
:1051000000F0EEFF5046049900F0EAFF504608997F
:1051100000F0E6FF5946504600F0E2FFE1E5354B6E
:1051200040460593002349461F463611012E21DCD7
:105130000BB1804689462F4BA9F1547903EBC70781
:105140004246D7E900014B46FBF7C6F9264B0A4613
:105150000B40294980468B42B9D8A1F580118B427A
:1051600086BF4FF0FF38DFF8949002F154790023A6
:1051700005937FE0F20705D5059BD3E90023FBF7F4
:10518000ABF90123059A0137083276100592CDE775
:10519000EDD0764216F00F020AD0154B404603EBD5
:1051A000C2034946D3E90023FBF7C0FA804689468B
:1051B0003611DCD01F2E23DD4FF0000BCDF810B0E0
:1051C000CDF820B0CDF818B022234FF000084FF0F2
:1051D0000009CAF8003089E7797B0008907B000855
:1051E000707B0008737B00080000F07F077F0008D9
:1051F000F87D0008D07D00080000A07CFFFFEF7F55
:1052000016F0100318BF6A23404605934946002351
:10521000B04FF20704D5D7E90023FBF75DF901236E
:10522000761007F10807F4D10BB180468946059B3B
:10523000C3B1C9F30A52C2F16B03002B494611DD19
:105240001F2B40F32781342BD8BF4FF0FF334FF093
:105250000008CFBF4FF05C79C2F14B0203FA02F2B3
:1052600002EA01090022002340464946FBF79CFB65
:105270000028A1D1069B5A46009350462346089920
:1052800000F096FF089000283FF421AF049B4FF0F8
:10529000000B5D1B079BCDF810B0002BB4BF2B4655
:1052A00000230E93079B23EAE3731493089B504655
:1052B000596800F0D5FE069000283FF410AF089B17
:1052C0000C301A6903F10C010232920000F0BAFEB0
:1052D0001CAB01931BAB009342464B465046CDE9B5
:1052E0000C8901F0A7FA1A9000283FF4F8AE0121CA
:1052F000504600F0F5FF0346049000283FF4EFAE5F
:105300001B9D1C9A002DABBF0E9B149BEE185C1BC3
:10531000059BA8BF149CA5EB030515446E4B05F136
:10532000FF35B8BF0E9E9D42C2F1360280F2C480A6
:105330005B1B1F2B4FF00107A2EB030200F3B180B0
:10534000002507FA03F30F93B718059BBE421444D8
:105350001C443346A8BF3B46A342A8BF2346002BAC
:10536000C2BFFF1AE41AF61A0E9B002B17DD1A466D
:105370005046049901F072F8049000283FF4AFAE53
:1053800001461A9A504600F0C1FF099000283FF4E8
:10539000A6AE50461A9900F0A3FE099B1A93002F5F
:1053A00000F38E80079B002B08DD5046149A069967
:1053B00001F054F8069000283FF491AE002C08DD6F
:1053C00022465046069901F0A3F8069000283FF4C3
:1053D00086AE002E08DD32465046049901F098F85A
:1053E000049000283FF47BAE5046069A1A9901F0CB
:1053F0001BF9834600283FF472AE0024C368049969
:10540000C4600B9301F0F4F8A0426BDA0B9B53EAF3
:10541000080340F09180C9F31303002B40F08C8007
:1054200029F000431B0D1B05B3F1D66F40F28480B9
:10543000DBF814301BB9DBF81030012B7CDD59464A
:105440000122504601F064F80499834601F0D0F837
:10545000002871DD05994B46204A002900F08C8018
:1054600002EA0901B1F1D66F00F38680B1F15C7FE9
:105470007FF7AAAE40464946194B0022FBF72CF8AD
:105480000B46034308BF22238046894608BFCAF85B
:1054900000302FE64FF0FF3202FA03F303EA080868
:1054A000E0E6C5F17F4505F57F0505F57B45E2356D
:1054B00007FA05F50F9747E7012300250F9343E708
:1054C0003A4650461A9901F023F81A9000287FF4C2
:1054D00069AF04E6A87B000802FCFFFF0000F07F34
:1054E00000005039CDF8249065D10B9AC9F313030D
:1054F0005AB3994A93422BD1059B414603B34A467E
:10550000964B1340B3F1D46F4FF0FF321BD81B0DF5
:10551000C3F16B0302FA03F3994219D1904B099A34
:105520009A4202D101313FF4DAAD4FF000088B4BC3
:10553000099A1A4002F58019059B002B9AD1D9E5EA
:105540004FF0FF33E8E71346E6E753EA080381D05C
:10555000E5B1099B1D42EFD00B9B40464946059A99
:10556000C3B1FFF75BFB02460B46DDE90C01FAF71E
:10557000FDFD80468946DFE71340A3F580136FEAFF
:1055800013594FF0FF386FEA0959D5E70F9B13EA1B
:10559000080FE0E7FFF742FB02460B46DDE90C018E
:1055A000FAF7E2FD0022002380468946FBF7FCF96A
:1055B0000028C1D008E65846049901F097F9002266
:1055C0004FF0804306460F46FBF702FA002870D0E2
:1055D0000B9B002B42D00026624F624D099B23F0AB
:1055E00000431B0D1B050F930F9A5F4B9A4240F02F
:1055F000C380099B4046A3F15479494601F0A0F8C5
:1056000002460B4630463946FAF766FF42464B469D
:10561000FAF7ACFD0B465149544A19409142804675
:105620005DD90D9A4E4B9A4203D10C9B01333FF446
:1056300056AD4FF0FF38DFF8289150461A9900F028
:105640004FFD5046069900F04BFD5046049900F07E
:1056500047FD5946504600F043FD27E6B8F1000FDC
:1056600019D1099BC3F31303E3B90022304639462D
:105670003C4BFBF7A3F9C8B90022304639463C4BF6
:10568000FAF72AFF04460D4605F1004316941793D6
:10569000DDE91667A2E7B8F1010F03D1099B002BE2
:1056A0003FF492AD00260024324F96E70B9C304D1C
:1056B000EAE72F4B002230463946FAF70DFF0B9BE5
:1056C00004460D4633B901F1004310901193DDE912
:1056D000106783E702460B46CDE91023F7E703F195
:1056E0005479059B002BA8D129F000430F9A1B0D7C
:1056F0001B059A42A1D120462946FBF725FBFAF764
:10570000BDFE02460B4620462946FAF72DFD0B9AB0
:10571000C9F3130343EA0803134304460D4666D056
:1057200009A3D3E90023FBF749F900287FF4E2AC91
:1057300007A3D3E9002320462946FBF75DF900289B
:105740003FF47BAFD6E400BF9535A094FFFFDF3F69
:1057500035E5AF350000E03FFFFF0F000000F07FB0
:10576000FFFFEF7F0000F03F0000E07FFFFF9F7C26
:105770000000E03F0000F0BF059B13B30F9BB3F1A7
:10578000D46F1ED826A3D3E9002320462946FBF771
:105790001FF990B129462046FBF738F9012838BF98
:1057A0000120FAF71FFE0B9B04460D46D3B901F109
:1057B000004312901393DDE912670F9A07F1D66345
:1057C0009F1ADDE90C0100F0BBFF02460B46304694
:1057D0003946FAF781FEDDE90C23FAF7C7FC80466B
:1057E00089467EE702460B46CDE91223E3E70EA386
:1057F000D3E90023FBF7E2F8A1E700230A93199B02
:10580000159A1360FFF771BA652A3FF463AB452A16
:105810003FF460AB0123FFF795BB00BFAFF30080FF
:105820000000C0FFFFFFDF419535A094FFFFCF3F91
:105830000A4601460248034B0068FFF711BA00BF51
:105840001000002078000020012B2DE9F047804651
:1058500001D0242B06D9FFF775F916230360002029
:10586000BDE8F0870D46354F284615F8014BE65D3B
:1058700016F00806F8D12D2C2FD101262C78851C86
:10588000002B57D0102B09D1302C07D1287800F0ED
:10589000DF00582849D110236C780235002706F123
:1058A000004E0EF1FF3EBEFBF3F9384603FB19EA4A
:1058B000A4F1300CBCF1090F14D86446A34222DDD8
:1058C000002F1DDB81451BD301D1A24518DB012729
:1058D00000FB034015F8014BEAE72B2C04BF2C78A2
:1058E000851CCDE7A4F1410CBCF1190F01D8373C60
:1058F000E4E7A4F1610CBCF1190F04D8573CDDE7D3
:105900004FF0FF37E6E7002F07DA22237046C8F88A
:105910000030002AA4D0691E05E006B14042002AEA
:105920009ED0002FF7D111609AE73024002BB5D11B
:105930000823B3E7302CA9D00A23AFE7D17B0008B6
:1059400013460A46014602480068FFF77DBF00BFC4
:105950001000002003692DE9F043B3EB611F00F153
:1059600014044FEA611246DD11F01F0104EB8306B7
:1059700004EB82050CD1294600F11007B14235D362
:105980009B1A9B00EA1E964238BF0023234415E071
:10599000A14654F82270C1F12008CF4005F1040E51
:1059A0007645F44616D89A1A9200043A0135AE426A
:1059B00038BF0022A318A75007B10433A342A3EBBA
:1059C000040208BF00234FEAA202026108BF43613C
:1059D000BDE8F083DCF800C00CFA08FC4CEA0707CD
:1059E00049F8047B5EF8047BCF40D9E751F804CB3B
:1059F00047F804CFC2E72346E0E7A0F13003092BC4
:105A000002D82038C0B27047A0F16103052B01D83D
:105A10004738F7E7A0F14103052B01D82738F1E714
:105A2000002070472DE9F04F8BB00593B24B0290E8
:105A30001B688B46184690460393FAF789FB82460B
:105A4000039BDBF80020034413F8013C0693931CEE
:105A5000C2F1FF2202F57F02FE32D1181F4613F871
:105A6000010B01913028F8D0FFF7C7FF044600284A
:105A70003AD152463846039901F068F805460028A5
:105A800066D117F80A0007EB0A06FFF7B6FF0028F1
:105A900060D0334618781F46302803F10103F9D04F
:105AA000FFF7ABFF0123B0FA80F435466409019398
:105AB0003A46164630780132FFF79FFF0028F8D1AA
:105AC00052463046039901F041F880B94DB906EBD2
:105AD0000A052A46164630780132FFF78EFF002865
