:020000040800F2
:1000000060070020B50100089D3400083532000863
:1000100099340008B11800081938000800000000E1
:10002000000000000000000000000000A5340008EF
:10003000B518000800000000A1340008E9340008E9
:10004000CF010008CF010008CF010008CF01000850
:10005000CF010008CF010008CF010008CF01000840
:10006000CF010008CF010008CF010008CF01000830
:10007000CF010008CF010008CF010008CF01000820
:10008000CF010008CF010008CF010008CF01000810
:10009000CF010008CF010008CF010008CF01000800
:1000A000CF010008CF010008CF010008CF010008F0
:1000B000CF010008CF010008CF010008CF010008E0
:1000C000CF010008CF010008CF010008CF010008D0
:1000D000CF010008FD370008CF010008CF0100085C
:1000E000CF010008CF010008CF01000800F002F89E
:1000F00000F050F80AA090E8000C82448344AAF172
:100100000107DA4501D100F045F8AFF2090EBAE86F
:100110000F0013F0010F18BFFB1A43F0010318473B
:100120007852000098520000103A24BF78C878C175
:10013000FAD8520724BF30C830C144BF04680C60ED
:10014000704700000023002400250026103A28BF35
:1001500078C1FBD8520728BF30C148BF0B60704739
:10016000662905F01380752900F05880002070473B
:100170001FB500F0E9FC04000020002104F0E6FABD
:10018000401C60600020002104F0CAFAE0601FBD3E
:1001900010B510BD00F04CFE1146FFF7E9FF03F06B
:1001A0005DFB01F0F5F803B4FFF7F2FF03BC01F0CB
:1001B00077FB00000948804709480047FEE7FEE753
:1001C000FEE7FEE7FEE7FEE7FEE7FEE7FEE7FEE707
:1001D00004480549054A064B704700008135000870
:1001E000ED0000086001002060070020600300208F
:1001F000600300200FB41CB5074B06AA7B44694678
:100200000090059800F0EBFB0020694600F0FAFB37
:100210001CBC5DF814FB0000050800002DE9F0414E
:100220000646002410687529314616A510D0AFF394
:100230000080002802DA404213A507E031688A07EF
:1002400001D512A502E0490704D511A5012401E05A
:10025000AFF3008000210A2206F1240709E0B0FB79
:10026000F2FCB0FBF2F302FB1C003030785418466D
:10027000491C0028F3D123462A463046BDE8F04108
:1002800000F041B9000000002D0000002B0000002C
:10029000200000002DE9F0474FF0000A894604468F
:1002A000C0F820A02046E1688847002876D025289D
:1002B00006D0D4E901219047206A401C2062F1E772
:1002C000E168204600258847C4F81CA006460027A0
:1002D000C4F818A02A2E09D0304604F09EF938B38D
:1002E00004EB8708303EC8F8186019E059F8041B81
:1002F000204604EB87029161E1688847012F06469A
:1003000018D1E069002820DA25F020051DE0D8F892
:10031000180000EB800006EB40003038C8F81800E9
:100320002046E1688847064604F077F90028EED1B8
:10033000012F0AD02E2E08D12046E16888477F1C65
:100340000646022F45F02005C4DBA069002803DA29
:10035000404245F00105A061E80701D025F01005F5
:10036000B6B1A6F14100192802D8203645F400653F
:100370004A463146204625604D46FFF7F1FE58B10A
:10038000012806D0ED1D25F0070000F1080989E7D6
:1003900004E005F1040985E730468AE7206ABDE8F4
:1003A000F08770B5064600F09FF8046805463046B1
:1003B0000A22002100F084FB2C6070BD401ECAB2EE
:1003C00010F8011F8A4202D00029F9D1002070479D
:1003D00030B505460B462A4613F8014B12F8010BBF
:1003E00008B1A042F8D01CB1002802D06D1CF1E782
:1003F000284630BD40EA0103024630B59B0710D1C4
:100400004FF0013400E008C208C91D1B9D4315EAE6
:10041000C41FF8D013F0FF0102F8011B0DD01B0A16
:10042000F8E711F8013B002B02F8013B05D011F869
:10043000013B002B02F8013BF3D130BD10B5431C4A
:1004400002E010F8011B71B18107FAD14FF00132BF
:1004500002C88C1A8C4314EAC211F9D0C01A0A06D9
:1004600003D0C01E10BDC01A10BD0A0401D0801EEA
:1004700010BD0902FCD0401E10BD421E12F8013F03
:10048000002BFBD111F8013B002B02F8013BF9D105
:1004900070474FF0000200B5134694469646203947
:1004A00022BFA0E80C50A0E80C50B1F12001BFF42D
:1004B000F7AF090728BFA0E80C5048BF0CC05DF893
:1004C00004EB890028BF40F8042B08BF704748BFE1
:1004D00020F8022B11F0804F18BF00F8012B704755
:1004E00070477047704700000048704710000020B8
:1004F00010B5FFF7F9FF006810BD10B50446FFF70F
:10050000F3FF046010BD2DE9F0470D469946924671
:10051000044600F124080168880604D5E06921F04A
:100520001001216000E00120A84201DD471B00E02E
:100530000027A1697A1902EB0900081AA061207846
:10054000C00602D42046AFF30080002608E0D4E9BC
:1005500001211AF806009047206A401C761C206290
:100560004E45F4DB2078C0060AD52046AFF3008064
:1005700006E0D4E9012130209047206A401C206227
:10058000381EA7F10107F4DC07E0D4E9012118F8CF
:1005900005009047206A401C2062281EA5F1010535
:1005A000F3DC2046AFF300802078000602D502205D
:1005B000BDE8F0870120FBE72DE9FF4F0C461E4602
:1005C0004FF0FF378BB0D2E90001DDF860800A9070
:1005D0008A46C1F30A5505B93D46002108464FF049
:1005E0000000BAF1000F00F4400005DA00EB8000D3
:1005F0004FF4400101EA50004FEA9059B9F1010F60
:1006000000DDB9460A9850EA4A000ED044F6105070
:10061000A5F2FF3545432F14B8F1000F1ED07542E7
:10062000291E1EDDC9F100021CE0B8F1010F4FF0D8
:10063000000001D0302103E0F24305E02154401CCA
:10064000B042FBDB30460022002121540B99C1F857
:100650000880C1E900200FB0BDE8F08FBD1B6D1C04
:10066000DEE74A4600DA694206A800F06FFB06ABF7
:1006700093E8070003AB83E8070050460A9903F0AC
:1006800003FB8DE80700A0F500501F380090039889
:10069000002D0ADD42F21F014A460844002303A947
:1006A0000390684603F0AEFD09E0A0F500504A460D
:1006B0001F38002303A90390684603F0CDFD8DE8A1
:1006C00007000004000C03D04FF0FF30410800E0A9
:1006D0001046B8F1000F03D00022009215461EE02C
:1006E000751E05D400F034FA303262556D1EF9D50E
:1006F000B3460122084302D000227F1C04E0207888
:10070000302801D100227F1E002A099784D01DE0E5
:10071000112D07DA00F01CFA303262556D1C50EAD8
:100720000102F5D1084302D00098C8B10EE00021C3
:10073000681E05E0235C625C63542254401E491C21
:100740008142F7DBAB46A81B401E0990002004F84D
:100750000B000B98099AC0F80880C0E9002B7AE7D3
:1007600011264FF0000857E72DE9F04F8846044660
:10077000D21D22F0070191B0D1E90001CDE90A01B3
:1007800003F0B6FE02460B98C00F01D02D2007E003
:100790002068810701D52B2002E0202101EAC0005A
:1007A000032A099001D0072A05DB0346414620466B
:1007B00000F01CFA0BE12078800601D5E06900E02A
:1007C0000620B8F1650F814606D0B8F1660F18D043
:1007D000B8F1670F70D131E00020B9F1110F00902E
:1007E00001DB112301E009F101030AAA01A90CA808
:1007F000FFF7E2FEDDE90C70002609F101058346F2
:1008000047E001204B4600904FF000470AAA01A99B
:100810000CA8FFF7D1FEDDE90DB00C995D4600266E
:1008200010B909F101000D18B9EB050003D4C0F1AE
:10083000FF3609F10105A5EB09002BE0B9F1010F25
:1008400001DA4FF001090020B9F1110F009048467C
:1008500001DD112300E003460AAA01A90CA8FFF755
:10086000ABFEDDE90C704D4600268346207800077C
:100870000AD4AB4500DA5D4601A8012D04DD41191B
:1008800011F8011C302907D04F4502DA17F1040F87
:1008900004DA012082460FE06D1EEEE7002F02DC35
:1008A000ED1B3E4403E0781CA84200DD7D1CB81B14
:1008B00000F1010A4FF000472078000703D4AA4551
:1008C00001DB4FF0FF3A0021B7F1004F0DF1430873
:1008D0008DF8431024D002202B23002F01DA7F4211
:1008E0002D230A21021EA0F1010000DC5FB197FB5D
:1008F000F1FC97FBF1F201FB1C7C17460CF1300C6C
:1009000008F801CDEEE7A8F1010003702188090580
:1009100001D5452100E06521A0F1010800F8011C86
:1009200009980FA9A1EB0807FF1D00B1012041198B
:1009300001EBEA70A1693844081A401EA0612078D2
:10094000C00602D42046AFF30080099828B1D4E94C
:1009500001219047206A401C20622078C00622D5E1
:100960002046AFF300801EE0002E04DBB34502DD1D
:1009700001A8805D00E03020D4E901219047206A81
:10098000401C2062761CAAF101005FEA000A0AD12D
:1009900000F0DAF8C0680168405CD4E901219047B2
:1009A000206A401C2062281EA5F10105DCDC07E05E
:1009B000D4E9012118F8010B9047206A401C2062FD
:1009C000381EA7F10107F3DC2046AFF300800320B7
:1009D00011B041E601694A1C02610878704700B510
:1009E0008FB0CDE901310021059105497944CDE968
:1009F000031011466846FFF74DFC0FB000BD000024
:100A0000E5FFFFFF0A6802F8010B0A60704700006B
:100A10000FB40B0010B54FF000048AB00FA900917D
:100A20000E99CC60234C7C44234A7A44CDE906429B
:100A300000D004236FF00042CDE901321F4A7A440E
:100A40006B4608920246002004F002FC0AB010BC7B
:100A50005DF814FBF0B507464FF0FF301E46154613
:100A60000C463B4685B06A460091CDE9010131460E
:100A70000020049004A8FFF7CBFF049903466018F8
:100A800025B109B1024600E022462A6000290ED0B5
:100A9000002B02DD0099814209D03B466A4631466F
:100AA000001B0094CDE9010404A8FFF7B1FF05B0D5
:100AB000F0BD0000430200005D020000990100004B
:100AC0002DE9F04791460F4680460446002614F86B
:100AD000015B2DB100F030F80068405DC007F6D131
:100AE0002B2D02D02D2D18D0641E4A4639462046A3
:100AF00000F0DCF827B13968A14201D1C7F80080C5
:100B00004FF0020471050BD54042002803DDFFF7CA
:100B1000EBFC0460A007BDE8F08746F48066E4E7DC
:100B20000028F8DAFFF7E0FC04606FF00040F2E71D
:100B3000004870471000002010B500F005F8001DB7
:100B400010BD00BF093C0000004870473000002085
:100B500030B5B0F10A0271F100034FEA900E4EEA8F
:100B6000817EB0EB0E0061EB91014FEA101E4EEA60
:100B7000017E10EB0E0041EB11114FEA102E4EEAF0
:100B8000016E10EB0E0041EB11214FEA104E4EEAC0
:100B9000014E10EB0E0041EB1141401841F10001F4
:100BA0004FEAD00040EA41704FEAD1014FEA810498
:100BB00044EA907410EB800544EB01046D1944EB9A
:100BC0000404521BA3414FF0000348BF0A3200D572
:100BD00030BD401C41F1000130BD10B50446FFF7A7
:100BE000ABFF0068005D00F0010010BD2DE9F04191
:100BF0001F46044603260168072A01F4006004DB4F
:100C000008B116A505E016A503E008B115A500E09A
:100C100015A521F010002060A069C01EA0610FB1D1
:100C2000401EA0612046AFF300804FB1D4E90121FE
:100C300038469047206A401C2062C01C206206E0B3
:100C4000206AFAE7D4E9012115F8010B9047761ED6
:100C5000F8D22046AFF30080BDE8F0814E414E004F
:100C60006E616E00494E4600696E6600426842B190
:100C7000016811F8013B23B1521EC0E90012184669
:100C800070470121C160881E704742685AB1C3682D
:100C9000016843B983688B4205D0491E521CC0E9E4
:100CA0000012002070474FF0FF3070472DE9F05FD1
:100CB000824615468B4600270AF10104B9460078A2
:100CC000302801D09DB113E014F8010B01277828DA
:100CD00003D0582801D045B10AE00DB1102D07D13D
:100CE000002714F8010B102502E0082500E00A2572
:100CF0000026B0460EE005FB080005FB06F10127C3
:100D00001FFA80F801EB1046B6F5803F00D3B946D4
:100D100014F8010B294600F0B0F80028EBDABBF11B
:100D2000000F05D00FB1641E00E05446CBF8004020
:100D3000B9F1000F06D0FFF7D7FB02210160C81EF2
:100D4000BDE8F09F48EA0640FAE700002DE9F047C9
:100D5000814616468AB0354878440DC88DE80D00A6
:100D600032487844801C03AC0DC884E80D0041F67D
:100D70009B300844372190FBF1F290FBF1F5A5F18F
:100D8000800501FB12041B3C02D56442012000E0F7
:100D90000020DFF898A080460027FA44AAF1BE0A96
:100DA0000EE0E0070AD03246684607EB4701012310
:100DB0000AEB810103F050FA8DE8070064107F1CF4
:100DC000002CEED1194F7F44AE3F19E0E80715D053
:100DD00007EB04100DF1180A90E80E008AE80E00E7
:100DE000C068F04201D1981908903246012306A943
:100DF00003A803F031FA03AB83E807006D10641C0D
:100E0000002DE3D14FF0010332466946B8F1000FDF
:100E100003A802D003F0F6F901E003F01DFAC9E9D6
:100E20000001C9F808200AB0BDE8F087AC45000011
:100E30007546FFF77DFEAE4605006946534620F035
:100E40000700854618B020B5FFF7C2F9BDE820407D
:100E50004FF000064FF000074FF000084FF0000B76
:100E6000AC46ACE8C009ACE8C009ACE8C009ACE8E5
:100E7000C00921F007018D4670473A2800D230386A
:100E800020F02002412A01D3A2F13700884201D389
:100E90004FF0FF30704700002DE9FF4F06468BB042
:100EA0000878FF2806D0491C2D2805D000244FF0D3
:100EB000000908E000200CE00124F8E709EB8903B1
:100EC000491C00EB43090878FF28F7D114B1C9F198
:100ED00000008146107800252C46AA4629462D2878
:100EE00001D02B2804D1521C2D2813D0002082467B
:100EF0008B461078FF280FD04FF0000C0A21521CAF
:100F0000A5FB017804FB018105FB0C11C5194BEB16
:100F10000104EEE70120EAE7002108464FF0000057
:100F2000BAF1000F02D000EB80004008C0F38157F7
:100F3000012F01DD4FF0FF370E9955EA040009EB50
:100F400001080BD04FF0020918F5FA7F16DA4FEAC4
:100F5000CA70002F706008DD012007E04FEACA70F8
:100F6000C6E900B00FB0BDE8F08F00203060FFF799
:100F7000BBFAC0F800901821084616E0B8F5FA7FD1
:100F800018DD002F02DAF748784401E0F64878448B
:100F9000D0E90010C6E9001040EACA707060FFF79F
:100FA000A3FAC0F80090142108460FB0BDE8F04F36
:100FB00004F0E9B8002108464FF00000B8F1000144
:100FC000099002DAC7F1000200E03A4601DAC8F1FE
:100FD000000106A8FFF7BAFE06AB93E8070003ABD3
:100FE00083E8070044F23E005BEA040100905846A3
:100FF00004D144F21E012C465D460091210C0904E7
:10100000014306D10099240444EA15442D04103903
:10101000009104F07F41014306D10099240244EA83
:1010200015642D020839009104F07041014306D186
:101030000099240144EA15742D01091F009104F060
:101040004041014306D10099A40044EA9574AD00E3
:10105000891E009104F00041084304D100986D19E5
:101060006441401E00904FF001033A466846B8F1D3
:10107000000FCDE9014503A902DD03F002F901E00B
:1010800003F0D5F8BAF1000F04460D4601D084F004
:101090000044002108464FF00000099940F2FF7714
:1010A000484010F00C0F07D124F00040284303D033
:1010B000C4F30A50B84212D1FFF716FAC0F80090F4
:1010C000C4F30A50B8420AD1A8487844D0E90010C5
:1010D000C6E9001004F000410843706042E7C6E929
:1010E00000543FE72DE9FF4F1F464FF0000A4FF035
:1010F000FF38454691B0D7E90146CDF83CA0FFF74F
:1011000023FDC0680168405C1090B96912986D1C9D
:101110008847396A814688470028F6D1B9F1FF3FF0
:101120000AD0002E24F4D06411DDB9F12B0F08D0C1
:10113000B9F12D0F0BD102E0404615B013E744F48E
:101140008064B96912986D1C8847761E81466005D7
:1011500004A901D52D2000E02B20002E01F1010B68
:101160000DF130088DF810003FDDB9F1690F08D09E
:10117000B9F1490F05D0B9F16E0F02D0B9F14E0F98
:101180001CD13B4601A8009580E85002DDE912120F
:101190006FF0020004F060F8C11CCED10EE0B96916
:1011A00012986D1C884781461398761E44F400748B
:1011B00005600F98401C002E0F9016DDB9F1300F1E
:1011C000EDD0B9F1780F02D0B9F1580F0DD10F98C9
:1011D00001280AD13B46CDE90054DDE91212001F77
:1011E000029604F037F8C11CA7D1109989453ED169
:1011F00044F0800406E01399681CAAF1010A44F443
:1012000000740860B9696D1C1298761E88473028F2
:101210008146F0D02BE01099894505D1200603D4F2
:10122000761E44F0800418E0484603F0F6F908B34F
:10123000761E0DF123029345A9F1300044F40074A9
:1012400006D20BF8010B200607D5AAF1010003E036
:10125000200602D40AF101008246A00502D51399A6
:10126000681C0860B96912986D1C88478146002E79
:10127000D1DC53E0002E51DDB9F1650F02D0B9F198
:10128000450F4BD1A00549D5B9696D1C1298761E42
:1012900024F440748847002E81460CDD2B2804D0AE
:1012A000B9F12D0F07D144F48074B96912986D1CFF
:1012B0008847761E8146E00501D52D2100E02B21CF
:1012C00008F8011BCDF8008021E0761E0DF13901F0
:1012D000884544F400740CD2A9F1300010F0FF00EE
:1012E00088F8000002D10099884509D908F1010861
:1012F00006E0E00501D51E4801E042F20F7082468B
:10130000B96912986D1C8847814613980560002EB4
:1013100004DD484603F081F90028D6D1F969129816
:101320008847FF2053468BF8000088F80000002013
:101330000A900B9004AA0CA90AA8FFF7ADFDA0051E
:1013400002D46FF00100F8E614F0240F12D0E00789
:101350001CD13868DDE90A12031D3B600068C0E952
:10136000001213E03444000026440000EA4200006A
:10137000F1D8FFFF0AA9684603F0DEF8E00705D1BF
:101380003868009A011D3960006802602846D4E67A
:1013900010B50446AFF300802046BDE81040FEF7CC
:1013A00002BF00004FF0013C50F8042B51F8043B01
:1013B0009A4221D1A2EB0C03934313EACC1317D129
:1013C00050F8042B51F8043B9A4215D1A2EB0C03C0
:1013D000934313EACC130BD150F8042B51F8043B80
:1013E0009A4209D1A2EB0C03934313EACC13DBD04E
:1013F0004FF00000704700BFD01A01BAB1FA81F176
:1014000001F0180122FA01F0CB40DBB2C0B2C01AE1
:10141000C1F120012CFA01F3D11A914311EAC31151
:10142000E6D17047B2F120030AD5C2F1200301FAD8
:1014300002F120FA03F341EA030100FA02F07047D7
:1014400000FA03F14FF00000704700002DE9FF4F54
:101450001F464FF03C0987B04FF00042DDE9141001
:1014600001F10108DDF858A002EA40500390002085
:1014700005908346054604460490B969461E0898BF
:101480008847AAF1010A0290BAF1000F3BDD0298E9
:101490002E2815D01021FFF7F0FC00282EDB4FF08E
:1014A000010B0599014317D0B9F1000F0BDB4A4638
:1014B000C117FFF7B7FF05430C43A9F1040905E085
:1014C000012004900BE008B145F0010501200590D2
:1014D000049820B9361D02E0049800B1361FB9699E
:1014E000089808F101088847BBF1000FAAF1010A2A
:1014F0000290C9D00999C1F80080C5E70298702808
:1015000008D0502806D0F96908988847BBF1000F29
:1015100014D04FE0002002900120BBF1000F049096
:1015200009D0B969089808F101088847AAF10109AA
:10153000B9F1000F07DCF969089888476FF00100DE
:101540000BB0BDE8F08F2B2804D02D280CD14FF024
:10155000FF300490B969089808F101088847A9F19B
:101560000109B9F1000FE6DD411CE4D00A21FFF7C3
:1015700084FC0028DFDB029908F1010801EB8101FE
:1015800000EB41000290B969089888470A21FFF7EB
:1015900074FC099AA9F10109B9F1000FC2F80080A1
:1015A00001DD0028E7DAF96908988847049902986C
:1015B00000FB016655EA040004D004F04041090034
:1015C00002D006E0039898E0A40044EA9574AD00C8
:1015D000B61E04F00041080002D16D196441761E68
:1015E000159810F0240F03D04FF00B095C4803E06E
:1015F0004FF028096FF07D008246564507DAAAEBC6
:1016000006018944B9F1410F01DD4FF04109012084
:101610000021A9F10102FFF705FF024628400B4611
:101620002140084301D0012100E00021501E029119
:1016300043F1FF3128402140084301D0012000E060
:1016400000200299834651EA0B014FD00021084641
:101650004FF00000039900F4400039B100EB800026
:101660004FF4400100EBD07001EA600080150128C2
:1016700002DD4FF0FF3000E013D0401C36D002985E
:1016800060B3BBF1000F0CD14A4601200021FFF7E7
:10169000C9FE28402140084301D0012000E000207D
:1016A000E0B101204A460021FFF7BCFE0346401985
:1016B0000A4661412D1A8C4111D3B9F1400F09DD61
:1016C000159810F0240F02D0AAF1340603E0AAF115
:1016D000170600E0761C00254FF0004406E05B1E74
:1016E00042F1FF3220EA030521EA0204CAF10100B7
:1016F000B04206DA1B49039808430190002000908D
:101700000EE0039AC4F3D321E80A0A43164940EADB
:1017100044500A433146CDE90002684602F072FFA8
:10172000159810F0240F0BD01598C00715D1386804
:10173000DDE90012031D3B600068C0E900120CE007
:1017400002A8694602F0F8FE1598C00705D138686E
:10175000029A011D3960006802604046F0E6000010
:1017600002FCFFFF0000F07F0000F03F2DE9FF4F7B
:1017700092461D4685B04FF00041DDE9124BDDE990
:1017800014727F1E01EA4B50414940F0FF4940EA84
:101790000108002122F020004928049102D04E289F
:1017A00028D04CE03BA0012607C88DE80700A969B6
:1017B0000698641C88477F1E014606D41DF8060063
:1017C00018B121F0200181420BD0E96906988847C1
:1017D000032E34D0082E32D06FF0010009B0BDE8DE
:1017E000F08F761C032E01D0082EE0D1601CCAF8C1
:1017F0000000DCE7A9690698641C88477F1E2AD48C
:1018000020F02000412826D1A9690698641C884749
:101810007F1E20D420F020004E281CD1A9690698F4
:10182000641C88477F1E48F4002849F48009CAF8E0
:10183000004001D4282806D0E969069888475FEA65
:10184000CB7012D022E0A9690698641C88477F1EDD
:1018500001D4002803DAE96906988847BCE72928FB
:10186000F1D1641CCAF80040E9E71BF0240F07D04F
:1018700028680499031D2B600068C0E9001805E082
:101880002868021D2A600068C0F800902046A5E77D
:101890000000F07F494E46494E495459000000006F
:1018A00001491820ABBEFEE7260002007047000089
:1018B000FEE7000070470000EFF3108072B600BF33
:1018C000FEE70000B0B581B00022009290F824201D
:1018D000012A01D1022179E04A680123062A02EB9C
:1018E000820C80F8243005D8026802F1340E6FF0C3
:1018F00004020AE003680C2A87BF03F12C0E6FF084
:10190000400203F1300E6FF022026244DEF800C0A4
:101910001F230C6893402CEA030304FA02F21A43D3
:10192000CEF80020D1F800E002680EEB4E04102340
:10193000BEF1090F88BF1E3C88BF0C2352F803C0BC
:1019400007258968A5402CEA0505A1402943D15007
:101950002EF001014FF0000C10294FF0000133D19F
:10196000016842F20042C4F20102914205D0816A4C
:1019700041F020018162012126E09268120222D406
:101980008A68BEF1100F42F400028A601BD140F257
:101990000001C2F2000109684DF68362C4F21B32F5
:1019A000A1FB0212910C01EB810149000091009909
:1019B00049B100BF009901390091009900294FF009
:1019C0000001F7D100E0002180F824C0084601B0F2
:1019D000B0BD0000B0B5002846D00446806A30B9DA
:1019E0000020E06284F82400204600F0A1F820687E
:1019F0008168C90709D0816821F00101816000F088
:101A00005BFA21688968C90730D100200121A36AE7
:101A1000A26A31B313F0100123D141F2021122EA7C
:101A200001010231A162E169D4E9013241EA030C0A
:101A3000531EB3FA83F35D091346B2F5807F18BFD6
:101A40002B02217D257B01294CEA450E31D13DB386
:101A5000A56A45F02005A562E56A45F00105E56245
:101A600027E042F01000A0620120B0BD054603E06F
:101A700020688068C007C8D000F01EFA401B032809
:101A8000F6D320688068C007F2D0A06A002140F039
:101A90001000A062E06A40F00100E0620120B6E7B9
:101AA000D4F818C04EF60005CFF6FF7505EB4C359F
:101AB0002B432568B2F5807F696821F4694141EACA
:101AC00003016960A9684FF2FD73CFF6E17301EA83
:101AD000030141EA0E01A96001D0012A06D1216962
:101AE0000022CFF6F07202EB015200E00022E96A18
:101AF00021F470011143E962A96840F6FE62CFF655
:101B00001F721140714507D10021E162A16A0122D3
:101B100062F30101A162B0BDA06A40F0100020F0A4
:101B20000200A062E06A40F00100E0620120B0BD66
:101B300080B586B0014640F60000C4F20100096895
:101B400000F5E05291424FF00001CDE90411CDE9DA
:101B5000021101D006B080BD41F21801C4F20201A9
:101B60000A6842F400720A600A6802F40072019284
:101B7000019A0A6842F004020A60096801F004014F
:101B800001910199022102910321039102A900F020
:101B90008DF806B080BD0000014690F821000228B3
:101BA00013D10868D1E90FC3026822F00E02026067
:101BB000026822F001020260012000FA03F2CCF870
:101BC000042081F82100002002E004208863012025
:101BD000002281F82020704780B590F8211002295A
:101BE00023D10268116821F00E0111602F211368C2
:101BF000C4F202018A4240F20401C4F2020123F05D
:101C00000103136015DD3023C4F202039A421CD095
:101C10004423C4F202039A421AD05823C4F20203A6
:101C20009A421AD14FF480331FE0042181630120CE
:101C300080BD0823C4F202039A420CD01C23C4F2D4
:101C400002039A4209D110230FE04FF480730CE095
:101C50004FF4805309E0012307E001F1680C4FF0D5
:101C60008073624508BF4FF480130B60012180F838
:101C70002110426B002180F820100AB1904700210A
:101C8000084680BDB0B5044600F016F9054640F29E
:101C90000500C2F200000078611C18BF044400BFB8
:101CA00000F00AF9401BA042FAD3B0BD2DE9F04F75
:101CB00082B00E68002E00F0F68041F20042C4F2BD
:101CC0000102042340F2004E904208BF03234FF666
:101CD000FF7CC4F2010E009300240123C1F2100C1A
:101CE0004FF0000A4FF0000943E0012704F00C0315
:101CF0000F229A402BEA020207FA03F34FEA9A05F1
:101D00001A4346F825204E6840F20C45F202DEF8F0
:101D1000082054BF22EA080242EA0802C4F2010580
:101D2000CEF808202A68B30254BF22EA080242EA29
:101D300008022A60B303DEF8042054BF22EA080236
:101D400042EA0802F303CEF80420DEF800204FF048
:101D5000010354BF22EA080242EA0802CEF800203A
:101D60000E680AF1010A36FA0AF204F1040400F0DE
:101D70009A8003FA0AFB16EA0B08F1D04E68664512
:101D800010DC122E50D8DFE806F0330A41454F4FE1
:101D90004F4F4F4F4F4F4F4F4F4F4F484C00D1F881
:101DA0000C9041E04FF6FF72C1F2210296420FDC27
:101DB0000022C1F2110296421AD00022C1F2120290
:101DC000964215D00022C1F22102964210D02BE09B
:101DD0000022C1F2220296420AD00022C1F2310250
:101DE000964205D00022C1F2320296421CD100BFB9
:101DF0008A6842B1012A14BFC0F814B0C0F810B00C
:101E00004FF0080910E04FF004090DE0CA6802F134
:101E1000080909E04FF0000906E0CA6802F1040968
:101E200002E0CA6802F10C0922460646B8F5807F36
:101E300024BF203A043637680F25954027EA050568
:101E400009FA02F22A433260CA79D2067FF588AFD6
:101E500041F21803C4F202031A68AEF57E7642F02E
:101E600001021A601A6802F001020192019A2AF036
:101E7000030256F802B040F60002C4F2010290429A
:101E80000FD040F60042C4F2010290423FF42DAF61
:101E900041F20002C4F20102009F904208BF0227F3
:101EA00024E7002722E702B0BDE8F08F002A08BF30
:101EB000090401617047000040F25810C2F20000AE
:101EC0000068704740F2050040F25811C2F200006D
:101ED000C2F2000100780A681044086070470000F0
:101EE00080B542F20000C4F20200016841F0100126
:101EF0000160032000F092F8002000F005F800F0E7
:101F00002BF8002080BD0000B0B540F20502C2F2FF
:101F1000000240F200011278C2F200014FF47A731D
:101F20000968B3FBF2F20446B1FBF2F1084600F097
:101F3000A7FB0F2C4FF001050CD858B94FF0FF301C
:101F400021460022002500F03DF840F20800C2F2D0
:101F5000000004602846B0BD80B582B041F2180090
:101F6000C4F20200016841F001010160016801F062
:101F7000010101910199416841F08051416040683F
:101F800000F0805000900098052000F047F80420F1
:101F9000C4F201000168022262F31A61016002B01A
:101FA00080BD0000002848BF704700F01F010122DB
:101FB00002FA01F14EF200124009CEF2000242F89C
:101FC0002010704710B54EF60C5CCEF2000CDCF819
:101FD0000030C3F3022E8EF00704042C28BF042423
:101FE000BEF103034FF0FF3E0EFA04F438BF0023A6
:101FF000A14399400EFA03F39A43114300F1604262
:1020000000F00F03090102F56442043B6344002819
:1020100048BF03F10C02117010BD00004EF60C51C8
:10202000CEF200010A684FF6FF031A4060F30A225D
:1020300042F0806040F0FD70086070472DE9F0418B
:1020400082B00446007841F21C06C007C4F20206C2
:102050004AD0306810F0805808D1306840F0805085
:102060003060306800F080500190019847F200071E
:10207000C4F200073868C00512D4386840F4807094
:102080003860FFF719FF05463868C00508D4FFF728
:1020900013FF401B6428F7D9032002B0BDE8F0818C
:1020A000706810F4407012D0616801F44071884289
:1020B0000DD0706840F24042C4F24222012320F465
:1020C000407113600023C0071360716029D17068EC
:1020D000616820F440700843B8F1000F706003D1CC
:1020E000306820F0805030602068810707D556F8AE
:1020F000181CA26821F44041114346F8181CC00680
:1021000003D4002002B0BDE8F08156F8180CE16855
:1021100020F48000084346F8180C002002B0BDE807
:10212000F081FFF7C9FE054641F2883770688007E5
:10213000CDD4FFF7C1FE401BB8424FF00300F5D9E4
:10214000ECE700002DE9F04381B0002800F0858025
:1021500042F20008C4F202080446D8F800000D4616
:1021600000F0070088420CD2D8F8000020F00700E9
:102170002843C8F80000D8F8000000F00700A84283
:102180006BD1206841F204098107C4F2020917D516
:10219000410705D5D9F8001041F4E061C9F80010F5
:1021A000010705D5D9F8001041F46051C9F80010B5
:1021B000D9F80010A26821F0F0011143C9F800100D
:1021C000C00741D1D8F8000000F00700A8420CD9A0
:1021D000D8F8000020F007002843C8F80000D8F81D
:1021E000000000F00700A84237D12068410707D55A
:1021F000D9F80010E26821F4E0611143C9F8001039
:10220000000708D5D9F80000216920F4605040EAA1
:10221000C100C9F80000D9F8002002F00C0008281D
:1022200041F20020C0F27A004ED145F23A33C2F3B7
:102230008341C0F60003595CD20339D440F6001044
:10224000C0F23D0048433FE06068022809D0012801
:1022500029D159F8041C890307D4012001B0BDE835
:10226000F08359F8041C8901F7D5D9F8001021F042
:1022700003010843C9F80000FFF71EFE064641F2BD
:10228000883700BFD9F80000616800F00C00B0EB9F
:10229000810F97D0FFF710FE801BB842F2D90320C0
:1022A00001B0BDE8F08359F8041C8907D5D5DCE7F7
:1022B000D9F8002045F23833C2F34042C0F600039B
:1022C0009A5C4843B0FBF2F0D9F8001045F2203296
:1022D000C1F30311C0F60002515C40F2000220FA83
:1022E00001F140F20800C2F200000068C2F20002F0
:1022F0001160FFF709FE002001B0BDE8F083000087
:1023000040F2000041F20401C2F20000C4F20201F6
:102310000068096845F23032C1F30221C0F60002BC
:10232000515CC8407047000040F2000041F20401D7
:10233000C2F20000C4F202010068096845F23032BE
:10234000C1F3C221C0F60002515CC84070470000D2
:102350002DE9F04182B0002800F0D78004460078D3
:1023600041F20006C007C4F2020644D0706800F0D3
:102370000C00042817D0706800F00C00082802D167
:102380007068C0030FD465682DB1B5F5A02F10D0CB
:10239000B5F5803F11D0306820F48030306030686F
:1023A00020F480200CE03068800324D5606810BBE6
:1023B000ABE0306840F480203060306840F480301A
:1023C0003060FFF779FD002D054611D0306880039D
:1023D00011D4FFF771FD401B6428F7D916E100BF47
:1023E000FFF76AFD401B64284FF0030000F28A806B
:1023F00030688003F4D42078800718D5706810F016
:102400000C0F07D0706800F00C00082827D1706806
:10241000C00324D43068800702D52069012874D114
:102420003068616920F0F80040EAC100306020782F
:1024300000074FD5A06940B30020C4F2422001211B
:10244000C0F88014FFF738FD054600BF706A8007AA
:102450002DD4FFF731FD401B0228F7D9D6E02069C3
:10246000002840F20000C4F2422000F0A6800121C2
:102470000160FFF721FD054630688007D0D4FFF7E3
:102480001BFD401B0228F7D9C0E00020C4F2422007
:102490000021C0F88014FFF70FFD0546706A800721
:1024A00018D5FFF709FD401B0228F7D9AEE040F22E
:1024B0000000C2F20000006844F6D351C1F262018C
:1024C000A0FB0101480A019000BF0198411E0028AD
:1024D0000191F9D1207840071BD4E5698DB170686E
:1024E00000F00C00082846D1012D0ED07068216A3A
:1024F00000F480328A4208D1616A00F47010884288
:1025000003D1002002B0BDE8F081012002B0BDE897
:10251000F081F06910F0805808D1F06940F08050E7
:10252000F061F06900F080500090009847F20007D9
:10253000C4F200073868C0050FD4386840F48070D2
:102540003860FFF7B9FC05463868C00505D4FFF7C9
:10255000B3FC401B6428F7D958E0E5681DB1052D90
:102560003CD0012D3ED0306A20F001003062306A4C
:1025700020F0040039E00027C4F24227002038662A
:10258000FFF79AFC022D05460CD100BF3068800190
:1025900054D5FFF791FC401B02284FF00300F5D9FA
:1025A000B0E700BF30688001ABD5FFF785FC401B6A
:1025B00002284FF00300F5D9A4E700210160FFF7DE
:1025C0007BFC0546306880077FF531AFFFF774FC70
:1025D000401B02284FF00300F4D993E7306A40F023
:1025E00004003062306A40F001003062FFF764FCA2
:1025F000002D054641F2883714D000BF306A8007AD
:1026000013D4FFF759FC401BB842F7D9032002B09E
:10261000BDE8F081FFF750FC401BB8424FF00300CB
:102620003FF670AF306A8007F4D4B8F1000F7FF442
:1026300054AFF06920F08050F0614EE7206AB0F5A9
:10264000803F05D17168A26821F4003111437160A7
:102650007168626A21F474111143084370600120AB
:102660003866FFF729FC0446306880013FF549AF22
:10267000FFF722FC001B02284FF00300F4D941E7CA
:10268000411E0020B0EB116F1CBF012070474EF2BD
:102690001002CEF2000251604EF62351CEF200013C
:1026A000F0230B70072190601160704710B590F80F
:1026B0003C20012A4FF0020231D0012380F83C3047
:1026C00080F83D200268D2F804E0D2F808C00C6817
:1026D0002EF07003234340F2FF74C4F20004A242C0
:1026E000536005DCB2F1804F0ED040F2004307E0AA
:1026F00042F60043C4F201039A4205D040F60003BB
:10270000C4F200039A4204D149682CF080031943B3
:1027100091600121002280F83D1080F83C20104695
:1027200010BD000090F83D1001291CBF012070472A
:10273000022180F83D10006840F2FF72C168C4F2C7
:102740000002904241F00101C16005DCB0F1804F10
:102750000ED040F2004107E042F60041C4F2010110
:10276000884205D040F60001C4F20001884206D13B
:10277000816801F00701062904BF00207047016845
:1027800041F0010101600020704700002DE9F04197
:1027900090F83C30012B04BF0220BDE8F0814FEAE5
:1027A000B2020123032A80F83C3000F2E980DFE81E
:1027B00002F0023A77B3036842F600471E6A1A6ACB
:1027C000C4F2010722F001021A621A465C6852F84C
:1027D00018CF8D6826F00206BB4245EA060E06D1E8
:1027E000CD682EF00C0625F0040545EA060E0E68AD
:1027F000BB4205D1D1E9055724F440742C433C4336
:102800002CF0730737435C609F614F6809695F6311
:10281000C3F820E09F6947F008079F619F6927F090
:1028200004079F61A8E0036842F600451C6A1A6A23
:10283000C4F2010522F010021A621A46D3F804C04D
:1028400052F818EF8E6824F02004AB4244EA0614D4
:1028500007D1CE686FF0400724F0C00407EA0616DF
:1028600034430E68AB4207D1D1E905872CF44065AB
:1028700047EA080745EA870C2EF4E64747EA0627A9
:10288000C3F804C09F614F6809699F631C629F6918
:1028900047F400679F619F6927F480679F616AE042
:1028A000036842F600451C6A1A6AC4F2010522F464
:1028B00080721A621A46D3F804C052F81CEF8E6870
:1028C00024F40074AB4244EA062407D1CE6840F2F7
:1028D000FF47360224F44064BE4334430E68AB42E3
:1028E00007D1D1E905872CF4405547EA080745EAA6
:1028F000071C2EF073073743C3F804C0DF614F682D
:102900000969DF631C62DF6947F00807DF61DF697F
:1029100027F00407DF612FE0036842F60047D3F891
:1029200020C01A6AC4F2010722F480521A621A46C1
:102930005C6852F81C5FD1F800E08E68BB4204D19D
:102940004F6924F4804444EA87142CF4005747EA82
:10295000063725F4E64646EA0E265C60DE614E68E0
:1029600009691E641F62DF6947F40067DF61DF6980
:1029700027F48067DF61090213681943002311609F
:10298000002180F83C101846BDE8F081002804BF03
:102990000120704710B5044690F83D0028B900208A
:1029A00084F83C00204600F05DF8022084F83D00E9
:1029B000206840F2FF730268C4F2000342F6004C44
:1029C0009842C4F2010C05DCB0F1804F0AD040F20D
:1029D000004103E0604505D040F60001C4F200016B
:1029E000884203D1A16822F070020A43984205DCB4
:1029F000B0F1804F0AD040F2004103E0604505D0BD
:102A000040F60001C4F20001884203D1216922F49A
:102A100040720A43A36922F08001D4F804E0E2681E
:102A2000194360450160C262C0F828E002D16169C3
:102A3000CCF8301001214161002084F8461084F860
:102A40003E1084F83F1084F8401084F8411084F858
:102A5000421084F8431084F8441084F8451084F838
:102A60003D1010BD81B0006840F60001C4F20001C5
:102A7000884201D001B0704741F21C00C4F202004C
:102A8000016841F004010160006800F0040000905A
:102A9000009801B07047000041B1082909D004290D
:102AA00014BF00F1410200F13F0204E000F13E02D8
:102AB00001E000F1400280B51278012A1CBF01201C
:102AC00080BD022241B1082909D0042914BF80F831
:102AD000412080F83F2004E080F83E2001E080F8AB
:102AE00040204FEAB103032B12D845F24C3CD0F8FA
:102AF00000E0C0F6000C5CF823C0DEF80C2042EACF
:102B00000C02CEF80C200022032B04D9104680BD05
:102B10000122032BFAD8006801F01F014FF0010CCD
:102B2000036A0CFA01F18B430362036A42F6444CD8
:102B3000C4F2010C1943ACF144039842016205D17F
:102B4000DCF8001041F40041CCF8001040F2FF71B5
:102B5000C4F20001884205DCB0F1804F0ED040F293
:102B6000004107E042F60041C4F20101884205D06D
:102B700040F60001C4F20001884204D1816801F0EE
:102B800007010629C2D0016841F001010160104629
:102B900080BD00007047000070470000B0B582B0F3
:102BA000044600680168C368426901F02F05202DC2
:102BB00003F0200506D12DB1204602B0BDE8B0409B
:102BC00000F0BABD5FEA017C1EBF02F0010E03F403
:102BD000907212EB0E0253D1226B012A05D111F033
:102BE000100218BF13F0100236D10A0622D513F0D6
:102BF00080021FD094F8411021293FD1A168B1F57E
:102C0000805F03D12169002900F04581216A4A1CB7
:102C1000226209784160E18C01390A04E1842DD1F6
:102C2000C16821F08001C160C16841F04001C1600C
:102C300002B0B0BD490621D513F040011ED0C168D5
:102C400021F04001C1602021204684F8411002B0EB
:102C5000BDE8B04000F0ECBA00210191016801919B
:102C60004168019101994069400611D4A08DE18D20
:102C7000E28D002A18BF884240F0DF8002B0B0BD6C
:102C8000C80718BF13F4807049D148074DD453E0EA
:102C9000E06B016849688AB2002AEFD0A38D9A429E
:102CA000ECD2E1858069202831D000BF206850E84F
:102CB000030F216820F4807041E80302002AF5D157
:102CC000206850E8050F216820F0010041E8050266
:102CD000002AF5D1206850E8050F216820F0400057
:102CE00041E80502002AF5D1202084F842000020A6
:102CF000206300BF206850E8030F216820F0100017
:102D000041E80302002AF5D1E06BFEF745FF0220FF
:102D10006063A08DE18D401A81B22046B6E0606C00
:102D200040F001006064480706D5BEF1000F03D0F3
:102D3000606C40F002006064880706D5BEF1000FA9
:102D400003D0606C40F004006064BCF1000F09D552
:102D500045EA0E00B0FA80F0400903D1606C40F003
:102D600008006064606C00283FF488AF11F0200018
:102D700018BF002D02D0204600F0DEFC206840691C
:102D8000616C00F0400001F00801401848D000BF1D
:102D9000206850E8030F216820F4907041E8030296
:102DA000002AF5D1206850E8050F216820F00100C5
:102DB00041E80502002AF5D1206B01280AD100BFA5
:102DC000206850E8030F216820F0100041E803025A
:102DD000002AF5D1202084F84200002020632068DA
:102DE0004069400623D500BF206850E8050F2168E0
:102DF00020F0400041E80502002AF5D1E06BB0B1B7
:102E000043F28551C0F600014163FEF7E5FE00285C
:102E10003FF434AFE06B416B02B0BDE8B04008470F
:102E20002046FFF7B9FE0020606402B0B0BD204626
:102E300002B0BDE8B040FFF7AFBE401A216851E8CC
:102E4000031F226821F4907142E80313002BF5D18F
:102E5000216851E8051F226821F0010142E80513AD
:102E6000002BF5D1202184F842100021216300BFFE
:102E7000216851E8031F226821F0100142E8031382
:102E8000002BF5D1022281B22046626302B0BDE878
:102E9000B040FFF77FBE216A31F8022B6FF35F224B
:102EA00042602162B7E60000002804BF012070479D
:102EB00010B5044690F8410028B9002084F840007D
:102EC000204600F061F8242084F841002068D4E90D
:102ED0000212C36823F40053C360036923F4405310
:102EE0001A430261D4E904231143C268194341F231
:102EF0000C639A431143C1604169A26921F4407196
:102F0000114343F60002C4F201029042416102D033
:102F1000FFF7F6F901E0FFF707FA62681921484365
:102F20009100B0FBF1F048F21F51C5F2EB11A0FB8C
:102F300001235A094FF69C73C0F6FF7302FB03008E
:102F4000322303EB0010A0FB0101F02303EA51132D
:102F5000206803EB0212C1F343111144816001693F
:102F600021F490410161416921F02A014161C16868
:102F700041F40051C16000202021606484F84110B8
:102F800084F84210606310BD70B586B040F600044E
:102F9000C4F20104006804F54051002688420596F9
:102FA000CDE90366029601D006B070BD41F218006B
:102FB000C4F20200016802AD41F480410160016881
:102FC00001F4804101910199016841F0040101601F
:102FD0000068294600F00400019001984FF4007049
:102FE000029002200390032005902046FEF75EFE2B
:102FF0004FF48060CDE90206204629460496FEF78C
:1030000055FE252001210022FEF7DCFF2520FEF7DA
:10301000C9FF06B070BD000090F84230202B1CBFE5
:103020000220704700294FF0010318BF002A01D188
:103030001846704700230363816222218285C2857E
:10304000436480F84210016921B10168CA6842F402
:103050008072CA6000680023416941F0010141614A
:10306000C16841F02001C16018467047006843F60E
:103070000001C4F20101884218BF704740F24011BC
:10308000C2F2000101220A70C16841F01001C16062
:10309000704700002DE9F04381B0044690F84100EC
:1030A00020281DD10D4600294FF0010000F0A1801D
:1030B0001646002A00F09D8000206064212098467A
:1030C00084F84100FEF7F8FEA684E684A1688146F4
:1030D000B1F5805F01D1206930B12F46002504E0B1
:1030E000022001B0BDE8F0830027E08C002842D028
:1030F00008F101060AE000BF97B117F8010B21683B
:103100004860E08C0138E084E08CA0B3206800685F
:103110000006F1D4BEB1B8F1000F0ED116E000BF29
:1031200035F8020B21686FF35F2048600027E8E75D
:1031300001680906E0D4002EFAD0FEF7BDFEA0EB30
:103140000900404502D82068F2E700BF206850E837
:10315000030F216820F4D07041E80302002AF5D162
:10316000206850E8050F216820F0010041E80502C1
:10317000002AF5D10AE020680068400635D4B8F18D
:10318000000F1DD018F101050CD012E0202084F8AA
:10319000410084F84200002084F84000032001B080
:1031A000BDE8F083206800BF016849061DD4002DEA
:1031B000FAD0FEF781FEA0EB09004045F2D900BF2E
:1031C000206850E8030F216820F4D07041E8030222
:1031D000002AF5D1206850E8050F216820F0010091
:1031E00041E80502002AF5D1D0E7202084F841000B
:1031F000002001B0BDE8F083034690F8410020288C
:103200001CBF0220704700294FF0010018BF002AA0
:1032100000D170471962002021219A84DA84586411
:1032200083F841101968CA6842F08002CA6070478A
:1032300070470000FEE70000B0B584B040F28000A7
:1032400042F200410024C2F20000C4F201014FF436
:10325000602201250394CDE9014404730475C26121
:10326000C0E9001484600561FEF7B4FB002818BFB4
:10327000FEF722FB40F28000C2F2000001A9CDE976
:1032800001550394FEF71EFB002818BFFEF714FB40
:1032900004B0B0BD2DE9F04786B0002741F2180018
:1032A000CDE90477CDE90277C4F20200016840F667
:1032B000000441F0100101600168C4F2010401F052
:1032C000100101910199016804F5006641F02001A7
:1032D00001600168012201F020010191019901685A
:1032E0004FF4005541F00401016001684FF00108FE
:1032F00001F0040101910199016841F008010160A8
:1033000000684FF4005100F0080001900198304629
:10331000FEF7CCFD20464FF4807101224FF48079F6
:10332000FEF7C4FDCDE9025802AD4FF0020A304667
:1033300029460497CDF814A0FEF7B8FC0020C1F28E
:103340001100CDE9030720462946CDF80880FEF795
:10335000ADFC49F6FC000290032620462946039660
:10336000FEF7A4FC4FF6B770CDE9020604F58060C5
:103370002946FEF79BFC20462946CDE90298CDE977
:10338000047AFEF793FC06B0BDE8F08770B590B004
:1033900040F6000540F2B000C4F20005C2F20000A1
:1033A000082100244FF47A62C0E900518021099479
:1033B000CDE90744CDE90544CDE90344CDE9014415
:1033C000C0E9024204618161FFF7E0FA002818BFFA
:1033D000FEF772FA40F2B000C2F2000008A9CDE98F
:1033E0000844FFF763F9002818BFFEF765FA60206C
:1033F00040F2B00401904FF4FA70C2F2000402905F
:10340000002601A92046002203960596FFF7BEF983
:10341000002818BFFEF750FA2068CDE90E66A842D2
:103420000D960C9601D010B070BD41F21800C4F298
:103430000200016841F00801016000680CA900F079
:1034400008000B900B9840200C9002200D900F90DC
:1034500005F58230FEF72AFC10B070BD80B540F251
:10346000F80043F60001C2F20000C4F2010100239B
:103470004FF00C0C4FF4E13280E80E00C0E903334A
:10348000C0E905C3C361FFF70FFD002808BF80BD79
:10349000BDE88040FEF710BAFEE70000FEE700003E
:1034A000704700007047000080B540F25410C2F22F
:1034B0000000006801F018FD47F25553C4F23803CC
:1034C0004FF0553201F0EEFA4FF60003C4F28603D6
:1034D000002201F083F901F079FA40F2B001C2F262
:1034E00000010968486380BDFEF7ECBC70B594B07C
:1034F0000AAC20462821FCF7CCFF01200A900E9050
:103500004FF4E01000254FF480310226139020463E
:103510000995CDE90755CDE90555CDE90355CDE927
:103520000155CDE90B15CDE91161FEF711FF20B171
:10353000EFF3108072B600BFFEE70F20CDE905065D
:103540004FF48060CDE9080505A802210795FEF734
:10355000F9FD20B1EFF3108072B600BFFEE7022044
:1035600001904FF40040039001A8FEF767FD20B1E1
:10357000EFF3108072B600BFFEE714B070BD00001C
:1035800070470000406A0021C185C184FFF704BB79
:103590002DE9F04F89B004460068C068C00640F1CC
:1035A000C78040F2401BC2F2000B9BF800000028CD
:1035B0004FF00000CDE90700CDE90500CDE903009B
:1035C000CDE9010000F0B48040F24110C2F20000E9
:1035D000007840F2511140F2521940F204082F28AD
:1035E000C2F20001C2F20009C2F2000806D10022B4
:1035F0000A70012289F8002088F8002099F800203C
:10360000002A4CD00A7840F204050F2AC2F20005C5
:1036100043D840F2700AC2F2000A0AF802000132EE
:103620003B280A703BD1D0B2002701AE0AF80070E7
:103630003046CDE90177CDE90377CDE90577CDE9CE
:103640000777FCF7FBFE46F62F12C7F273323118EC
:10365000325046F27550C6F25F30486046F26D4017
:10366000C2F23A2088600F7330465146FCF705FFDE
:10367000FCF7E4FE43F62232C0F60D223118325038
:103680000A200F71FEF7FEFA2046514600F04AF973
:10369000287040F25215C2F200050020287098F8F8
:1036A000000078BB01AD00262846CDE90766CDE9CC
:1036B0000566CDE90366CDE90166FCF7BFFE46F27B
:1036C0002F32C6F26D4229182A5046F65F10C7F213
:1036D0006E60486046F66140C6F26940886040F618
:1036E0003B50C0F20A00C8602846FCF7A7FE82B231
:1036F000204629461423FFF7CDFC012089F80060FD
:1037000088F8000000208BF800000090206801225B
:1037100001680091416800910099C16821F0100191
:10372000C16040F24111C2F200012046FFF774FC73
:1037300009B0BDE8F08F000081B090F84210222956
:103740001DD18268B2F5805F02D10169002948D09D
:10375000816AB2F5805F07D00AB9026922B10268B6
:10376000526802F07F0201E0026852680A70816AC2
:1037700001318162C18D01390A04C18501D001B0D6
:1037800070470168CA6822F02002CA60CA6822F441
:103790008072CA604A6922F001024A61202180F8E1
:1037A000421000214163026B012A23D1016300BF53
:1037B000016851E8031F026821F0100142E8031379
:1037C000002BF5D101680A68D20606D500220092C6
:1037D0000A680092496800910099818D01B0FFF755
:1037E000D9B90168826A49686FF35F2122F8021B28
:1037F0008262BFE701B0FFF739BC000010B540F2AC
:10380000F804C2F200042046FFF7C8F92046BDE8DC
:103810001040FFF7BDBE0000FEE70000F0B583B02A
:1038200040F25411C2F2000109680746084601F04F
:103830005BFB024640F62800C4F20000C46805683D
:1038400046680B4645F26C31C0F600013846CDE9BA
:1038500000450296FCF7CEFC03B0F0BDA6B006AC66
:1038600020468021FCF715FEFEF73AFBFFF73EFEEF
:10387000FFF710FDFFF7F2FDFFF7DEFCFFF786FD17
:1038800040F2B005C2F200052846FEF74BFF28467D
:1038900000210026FFF700F91A480DF1040C0090F2
:1038A00018A0051D2ECD40698CE82E0040F2F805C9
:1038B000C2F200050590694628461822FFF79CFCD5
:1038C00040F25410C2F200000660FFF7EDFD40F236
:1038D0004111C2F2000128460122FFF79DFB0FA60D
:1038E00020463146FFF79AFF2046FCF7A7FD82B23B
:1038F00028462146FFF780FC4FF47A70FEF7C2F9A4
:10390000EEE700BF2F53544D33324D657465725549
:1039100041525453746172743B0D0A0073746174A4
:10392000757300002DE9F043A3B00C468146BCA19D
:103930002046FCF74DFD40F20408C2F2000858B3DF
:10394000022003AC88F8000020468021FCF7A1FD8E
:1039500040F25410C2F20000006801F0C5FA0246BD
:1039600040F62800C4F20000C668076845680B46A8
:1039700045F26C31C0F600012046CDE900670295A2
:10398000FCF738FC2046FCF759FD82B24846214638
:103990000A23FFF77FFB3DE1A3A12046FCF718FDBA
:1039A00068B3032088F8000020463A21FCF706FDA2
:1039B000411C03A8FCF71EFD00F036FE00F0DCFE03
:1039C00040F25411C2F20001086001F08DFA47F292
:1039D0005553C4F238034FF0553201F063F84FF6F7
:1039E0000003C4F28603002200F0F8FE00F0EEFFB0
:1039F00040F2B001C2F20001096848630AE18CA1FB
:103A00002046FCF7E5FC98B3042088F80000204627
:103A10003A21FCF7D3FC411C03A8FCF7EBFC00F0B7
:103A200003FE00F0A9FE40F25414C2F20004216823
:103A300002460846114601F083FA206001F054FA6C
:103A400047F25553C4F238034FF0553201F02AF8CB
:103A50004FF60003C4F28603002200F0BFFE00F020
:103A6000B5FF40F2B001C2F2000109684863D1E03D
:103A700071A12046FCF7ACFC98B3052088F8000043
:103A800020463A21FCF79AFC411C03A8FCF7B2FC43
:103A900000F0CAFD00F070FE40F25414C2F20004BF
:103AA000216802460846114601F0F8FA206001F04C
:103AB0001BFA47F25553C4F238034FF0553200F069
:103AC000F1FF4FF60003C4F28603002200F086FEE9
:103AD00000F07CFF40F2B001C2F2000109684863C7
:103AE00098E057A12046FCF773FC58B1062088F8EF
:103AF000000040F61000C4F20100016841F080713E
:103B0000016087E051A12046FCF762FC58B1072014
:103B100088F8000040F61000C4F20100016841F48A
:103B20008071016076E04CA12046FCF751FC68B141
:103B3000082088F8000040F61000C4F20100D0F818
:103B4000001841F00051C0F8001863E045A120467C
:103B5000FCF73EFC68B1092088F8000040F6100030
:103B6000C4F20100D0F8001841F40051C0F8001868
:103B700050E03FA12046FCF72BFCA0B10B2088F8B9
:103B8000000020463A21FCF719FC411C03A8FCF771
:103B900031FCFCF706FC40F2B001C2F200010968FA
:103BA00080B2C86236E034A12046FCF711FCA0B117
:103BB0000C2088F8000020463A21FCF7FFFB411C4E
:103BC00003A8FCF717FCFCF7ECFB40F2B001C2F2D3
:103BD0000001096880B288621CE029A12046FCF738
:103BE000F7FBA0B10A2088F8000020463A21FCF734
:103BF000E5FB411C03A8FCF7FDFBFCF7D2FB40F200
:103C0000B001C2F20001096880B2486302E00020FE
:103C100088F8000098F8000023B0BDE8F08300BFEA
:103C20002F676574000000002F7365743A00000070
:103C30002F696E633A0000002F6465633A0000004C
:103C40002F6C696768745F6F6E3B00002F6C69674B
:103C500068745F6F66663B002F6C65645F6F6E3BD8
:103C6000000000002F6C65645F6F66663B0000001B
:103C70002F4152523A0000002F5053433A000000A7
:103C80002F4343523A0000005FEA400C08BF91F016
:103C9000000F4FEA8C234FEAC12243EA51514FEA09
:103CA0001C5018BF00F5F0404FEA300018BF41F03B
:103CB00000415FEA6C5C00F02980BCF1FF3F08BF67
:103CC00040F080407047130C06BF12044FF0100CF8
:103CD0004FF0000C130E04BF12020CF1080C130F6E
:103CE00004BF12010CF1040C930F04BF92000CF1FD
:103CF000020CD30F04BF52000CF1010C11464FF01F
:103D00000002A0F11F00A0EB0C00704711F0004F63
:103D100008BF704731F000413FF4D5AF0B0C06BF30
:103D200009044FF0100C4FF0000C0B0E04BF0902F9
:103D30000CF1080C0B0F04BF09010CF1040C8B0FE4
:103D400004BF89000CF1020CCB0F04BF49000CF139
:103D5000010CCCF1200322FA03F341EA030102FA39
:103D60000CF2A0EB0C0000F10100704723F07F473C
:103D700020F07F4C80EA030000F00040ACEB07032A
:103D800003F57C5303F1FF032DE9804909B44FEAA1
:103D9000144324EA03484FEA154B25EA0B4E0FF271
:103DA000042606EB13273E7803FB0667C7F50007DA
:103DB00007FB06F64FEAD64606F102064FEA5437ED
:103DC00007FB066CCCF1005C4FEA1C472CEA074C61
:103DD0000CFB06F507FB06F404EB15464FEA9616B6
:103DE00049085FEA320234BF00204FF000404FEA3A
:103DF000D13706FB07FC4FEA1C4C0CFB0BF7D21B20
:103E000003FB0CF761EB07010CFB0EF7B0EB07406F
:103E100072EB17420CFB08F734BFA2EB0742B2EB80
:103E2000074261EB17414FEA0C444FEA910706FB4A
:103E300007FC4FEA1C4C0CFB0BF7B0EBC74072EBD6
:103E4000573203FB0CF734BFA2EBC742B2EBC742B9
:103E500061EB57310CFB0EF7B0EBC70072EB5772FA
:103E60000CFB08F734BFA2EBC702B2EBC70261EB51
:103E700057714FEA816141EA92114FEA826242EA48
:103E800090124FEA806004EBCC04039F4FEAD137D5
:103E900006FB07FC4FEA1C4C0CFB0BF7D21B03FB89
:103EA0000CF761EB07010CFB0EF7B0EB074072EB70
:103EB00017420CFB08F734BFA2EB0742B2EB0742F4
:103EC00061EB17414FEA8C5504EB9C244FEA9107B4
:103ED00006FB07FC4FEA1C4C0CFB0BF7B0EBC74092
:103EE00072EB573203FB0CF734BFA2EBC742B2EBC5
:103EF000C74261EB57310CFB0EF7B0EBC70072EB1A
:103F000057720CFB08F734BFA2EBC702B2EBC70233
:103F100061EB57714FEA816141EA92114FEA826287
:103F200042EA90124FEA806015EB4C2544F1000400
:103F30004FEAD13706FB07FC4FEA1C4C0CFB0BF792
:103F4000D21B03FB0CF761EB07010CFB0EF7B0EB88
:103F5000074072EB17420CFB08F734BFA2EB074295
:103F6000B2EB074261EB17414FEA813141EA9241DE
:103F70004FEA823242EA90424FEA80304FEA0C76B2
:103F800015EB1C1544F1000448EA03434EEA0B48C4
:103F90004FF0000EB2EB080C71EB030724BF624632
:103FA00039464EEB0E0E4FF0000B001852414941BE
:103FB0004BEB0B0BB2EB080C71EB03077BF1000B27
:103FC00024BF624639464EEB0E0E4FF0000B001830
:103FD000524149414BEB0B0BB2EB080C71EB030761
:103FE0007BF1000B24BF624639464EEB0E0E51EAC0
:103FF000020718BF46F0010616EB0E7655F10002D7
:1040000054F1000103D5BDE88901BDE80088BDE891
:104010008901BDE80048B619524141EB0101A3F105
:104020000103704780807F7E7D7C7B7A797877760C
:1040300076757473727171706F6E6E6D6C6C6B6A85
:104040006A69686867666665646463636261616023
:10405000605F5F5E5E5D5D5C5C5B5B5A5A595958A0
:10406000585757565655555554545353525252510A
:10407000515050504F4F4F4E4E4D4D4D4C4C4C4B60
:104080004B4B4A4A4A4949494848484747474746A7
:1040900046464545454444444443434343424242E3
:1040A0004241414110B546EA06464FEA164646EA05
:1040B00042564FEAD22242EA41524FEAD121A3F5B9
:1040C0007053A3F1010300F02FF820F0004000F03E
:1040D000004700F1020CBCF5006F01EB00501146E7
:1040E00040EA070000D210BDBAF1000F0AD01CB59B
:1040F00003B44FF004004FF004014FF000000FBC78
:10410000BDE810404FF00001BBF1010FB9BF0448FA
:104110004FF0FF310348002140EA070010BD00BF07
:10412000FFFFEF7F0000F07F9C46002B30D477002C
:104130002BD04FEA37071CB503B44FF010004FF0F7
:104140001001BAF1000F06D0BCF1000FDCBF40F047
:10415000080040F008014FF000000FBCBDE810401F
:104160000BF1010BBBF1010F08BF5FEA170722BF7C
:1041700012F1010211F101014FF0004143F100037E
:1041800000F0004043EA00007047F9D35708D0E739
:1041900046EA06464FEA164613F1400F1FDD13F1BB
:1041A000200FDFBF16430A46002120335B42BED0FA
:1041B000C3F1200746EA06464FEA164602FA07F719
:1041C00046EA070622FA03F2C3F1200701FA07F7CD
:1041D00042EA070221FA03F14FF00003A7E746EA9B
:1041E000020646EA06464FEA164646EA0106BCBF04
:1041F00046EA0646360C4FF000034FF000024FF03F
:10420000000194E72DE9804C70B49A46934691E8FA
:10421000380007C831EA400C48BF34EA430C03D5E4
:10422000FFF7A4FDFFF780FFF0BCBDE8008C2DE98F
:10423000804C70B49A46934691E8380007C831EA3A
:10424000400C48BF34EA430C03D5FFF78FFDFFF75E
:1042500029FFF0BCBDE8008C2DE9804C70B49A4673
:10426000934691E8380007C810F0804F08BF13F05C
:10427000804F03D100F01AF8FFF756FFF0BCBDE8FD
:10428000008C2DE9804C70B49A46934691E8380032
:1042900007C810F0804F08BF13F0804F03D100F023
:1042A00005F8FFF7FFFEF0BCBDE8008C20F07F476B
:1042B00023F07F4C80EA030000F0004007EB0C0382
:1042C000A3F57C53A3F1FE0392F0000F00F0B3803E
:1042D00095F0000F00F077802DE901494FEA114079
:1042E00021EA00484FEA144624EA064700FB06FC90
:1042F00008FB06F607FB08F818EB06484CEB164CD3
:1043000000FB07F718EB07484CEB17404FEA124B3E
:1043100022EA0B4E4FEA154625EA06470BFB06FC40
:104320000EFB06F607FB0EFE1EEB064E4CEB164C84
:104330000BFB07F71EEB074E4CEB174B18EB0B086C
:1043400040F1000018EB0E0B58EB000840F10000A4
:104350008F1A4FF000014FF000063CBFC943661BA7
:1043600014BFB5EB040C00213CBFC943F61B4FEA58
:10437000174427EA04454FEA1C472CEA074C04FB84
:10438000076205FB07F70CFB05F616EB074642EB49
:10439000174204FB0CFC16EB0C4642EB1C421BEBD9
:1043A000060658EB020241414EEA8E0E46EA9E0690
:1043B00001D5BDE80189B619524141EB0101A3F1D4
:1043C0000103BDE801894FEA144524EA05464FEA96
:1043D000114721EA074C05FB07F406FB07F70CFB26
:1043E00006F111EB074144EB174405FB0CFC11EB04
:1043F0000C4144EB1C444FEA124722EA074C05FBF0
:1044000007F206FB07F70CFB06F616EB074642EB36
:10441000174205FB0CFC16EB0C4642EB1C456A18D8
:1044200054F1000148BF7047B619524141EB0101F8
:10443000A3F10103704795F0000F37D04FEA114206
:1044400021EA02464FEA144724EA074C02FB07F12F
:1044500006FB07F70CFB06F414EB074441EB17418E
:1044600002FB0CFC14EB0C4441EB1C414FEA1547DA
:1044700025EA074C02FB07F506FB07F70CFB06F6DF
:1044800016EB074645EB174502FB0CFC16EB0C46FA
:1044900045EB1C42121951F1000148BF7047B61993
:1044A000524141EB0101A3F1010370474FEA14456A
:1044B00024EA05464FEA114721EA074C05FB07F1BC
:1044C00006FB07F70CFB06F212EB074241EB174124
:1044D00005FB0CFC12EB0C4251EB1C414FF00006AB
:1044E00048BF7047921841EB0101A3F101037047E7
:1044F000490050EAC12018BF04204A0D18BF40F0FF
:10450000010040F2FF72B2EB515F08BF40F00200C1
:10451000012808BF0520704740F2013200204FF00B
:10452000E04100F067BE0000024A0020110700F0E1
:1045300061BE000001FDFFFF10B50446D1E9000196
:1045400000F002F8206010BDF8B504460D466A463A
:1045500000F080F800987E30009000281EDC0022D9
:1045600013462046294600F0F5F917D0002140F601
:1045700008004FF0000006462046294600F0FCF8EF
:10458000044640F6080006EA00014FF0000034F04F
:10459000004004BF0220FBF7B0FF29E00098FF288D
:1045A00028DB002108464FF0000000F440060022FE
:1045B00013462046294600F073FB8CBF00250125D9
:1045C0000220FBF79AFF4FF0FF4446B1002D0CBFCD
:1045D0004FF400004FF48000B04218BF084C042193
:1045E00008464FF00000002D04BF84F00040F8BDE5
:1045F0002046F8BD20462946BDE8F84000F0BCB88A
:10460000FFFF7F7F10B504460A46D4E90003194630
:1046100000F04CF8C4E9000110BD30380A2801D27E
:10462000012070470020704730B583B00446FBF787
:104630005FFF05460020CDE9000002460123214628
:104640006846FCF707FA2846FBF757FFDDE900014B
:1046500003B030BD10B5144600222260114A21F08B
:1046600000439342A8BF10BD53EA000208BF10BD2B
:10467000B3F5801FA8BF226807DA362200F0BAFD22
:104680006FF0350221F000432260DFF81CC06FF3A9
:104690001E510CEB23531A4441F0FF5141F00051DD
:1046A000226010BD0000F07F02FCFFFF2DE9F04109
:1046B00006460C4640F2FF75174635EA14502BD0DB
:1046C00000221346304600F045F925D03A463046E0
:1046D000214600F08FFD06460C4635EA145010D0F6
:1046E00000221346304600F035F915D10220FBF7C1
:1046F00004FFFFF719FF0A46214662F31E01BDE8D9
:10470000F0810220FBF7F9FEFFF706FF0A4621467B
:1047100062F31E01BDE8F08130462146BDE8F0811C
:1047200010B500290AD00878002807D00548784439
:10473000FCF738FE002801D0002010BD0248784464
:1047400010BD00009A0C0000920C000010B500296A
:104750000AD00878002807D005487844FCF722FEE4
:10476000002801D0002010BD0248784410BD000090
:104770008A0C0000820C000021F0004201F000438E
:10478000A2F16052B2F5801F28BFD2F17F6C0BD925
:104790005FEA001C43EAC20242EB507018BF704748
:1047A00028BF20F001007047B2F5801FBCBF18463B
:1047B00070474FEA410C1CF5001F02D2084600F07A
:1047C00067BC70B500F018FA00000089FFF7F6BF6B
:1047D0004FF00040A0F580007047000010B591EA4E
:1047E000030F48BF83F0004300F19882841A71EBF5
:1047F000030C05D2121943EB0C03001B61EB0C01F7
:104800004FEA1154A4EB135CDFF81CE11EEA430FDE
:1048100018BF9EEA445F00F0748021EA045123EA45
:104820000E0343F48013DCF1200E32D322FA0CFE87
:1048300010EB0E0023FA0CFE41EB0E01CCF1200E22
:1048400003FA0EFE10EB0E00CCF1200E51F1000128
:10485000B1F5801F32D201EB045112FA0EF2BDE81D
:10486000104058BF7047401C38BF5FEA420218BF73
:104870007047002814BF20F0010041F100014FEA09
:10488000410313F5001F38BF7047A1F1C04100F08C
:1048900001BA012A43EB0302ACF1200CDCF11F0E3C
:1048A00032BF4FF0000E23FA0CF310EB030041EB84
:1048B0000451B4EB115FD0D0A1EB045101F580118C
:1048C000490801EB04515FEA30000ED350F10000BB
:1048D00038BF12FA0EFE08D1BDE81040C9E7401CEF
:1048E00038BF5FEA4202CAD1C3E7BDE810404FEAD1
:1048F000410313F5001F38BF7047A1F1C04100F01C
:10490000C9B99EEA445F08D011EA5E0FBDE81040C5
:1049100004BF01F0004100207047BDE8104070B5B1
:1049200000F06AF964FBBE3E0000E0FF02494FF070
:10493000000000F02DBC00BF0000F87F491058BFF8
:10494000C1F140415B1058BFC3F140438B42EFF3CC
:104950000080704751EA030C17D41CF5801F58BF24
:10496000BCF5801F00F10680994218BF704708BF50
:104970009042704707D711F5801F58BF13F5801F6D
:1049800019D499427047894270471CF5801F08D599
:10499000BCF5801FF7D58B4218BF704708BF824215
:1049A00070474FF4001C1CEB410F38BF1CEB430F4A
:1049B00001D28B42704770B500F01EF99224490075
:1049C0004FF000514FF08053FFF7B8BF4FEA41035B
:1049D0004FEA5353A3F58063D3F11E03C8BFD3F14D
:1049E000210C0CDD4FF0004242EAC12242EA505253
:1049F00032FA03FC8CEAE17CACEBE1707047102BDF
:104A0000C4BF0020704703F5787CBCF1FF3F04D0A1
:104A10006FF0004282EA2100704770B500F0ECF8B8
:104A20004992248000207047F2E7000051EA030C0D
:104A300017D41CF5801F58BFBCF5801F00F10680FD
:104A4000994218BF704708BF9042704707D711F5C9
:104A5000801F58BF13F5801F19D4994270478942AF
:104A600070471CF5801F08D5BCF5801FF7D58B4219
:104A700018BF704708BF824270474FF4001C1CEB00
:104A8000410F38BF1CEB430F01D28B42704770B50A
:104A900000F0B2F8922449004FF000514FF08053DB
:104AA000FFF74CBF70B5DFF848C11CEA111E1EBFEE
:104AB0001CEA13159EEA0C0F95EA0C0F00F06F80AC
:104AC00081EA03044EEAD47EAE4421EA4C1123EA83
:104AD0004C1341F4801143F48013AEF17F7EA1FBAF
:104AE000024CA0FB0365361955EB0C05A1FB034CEA
:104AF0004CF10003A0FB021C16EB0C06654153F1C0
:104B00000003094218BF46F0010613F4007F0BD1E1
:104B10004FEA03314FEA053041EA155140EA165099
:104B200034036FF003020AE04FEAC3214FEAC520C5
:104B300041EA555140EA5650F4026FF0020202EB8E
:104B40002E4201EB025585EACE710AD05FEA440C91
:104B500018BF24F0004450F1000041F1000120EAA8
:104B6000D47040F2FE7C624500D270BDA84214BFF2
:104B70004FF080444FF04044002E08BF0024BEF1A7
:104B8000806FA8BFA1F1C041BDE8704080F2828073
:104B900001F1C04101F000414FF0000070470CEA04
:104BA00013159EEA0C0F18BF95EA0C0F06D081EA88
:104BB000030E4FF000000EF0004170BD00F01CF835
:104BC0008900013E00F007B800F009B84FEA430C35
:104BD0005FEA5C5C08D081EA030100F05BB84FEA51
:104BE000410C5FEA5C5CF6D102494FF0000070476F
:104BF0000000FF070000F87F0EF1020E2EF0030EFA
:104C00005EF8046B364205D4012A43EB030515F523
:104C1000001F12D8012841EB010C1CF5001F0CD815
:104C20000ED14FEAD17C0CEB4C0C0CF1020C15F5BB
:104C3000001F08BF4CEBD37C04E04FF0080C01E0F0
:104C40004FEAD37C0CEB4C0526FA05F606F0070676
:104C5000B6F1040C06D20EEB860CBDE870404CF0A9
:104C6000010C6047DFE80CF0090B02024FF0004135
:104C7000A1F500214FF0000070BD19461046012833
:104C800051EB010418BFD4F5001484BF002001F0DB
:104C9000004170BD0808A0F500114FEA31017047CE
:104CA00053EA010C17D41CF5801F58BFBCF5801FB8
:104CB00000F106808B4218BF704708BF82427047E0
:104CC00007D713F5801F58BF11F5801F19D48B42E9
:104CD00070479B4270471CF5801F08D5BCF5801FAC
:104CE000F7D5994218BF704708BF904270474FF4FC
:104CF000001C1CEB430F38BF1CEB410F01D2994243
:104D000070470FB40CBC03BCFFF7C1BE10B591EAED
:104D1000030F48BF83F000433FF568AD841A71EB81
:104D2000030C07D28CF0004C121943EB0C03001B50
:104D300061EB0C014FEA1154A4EB135CDFF8A4E122
:104D40001EEA430F18BF9EEA445F00F0B48021EAD8
:104D5000045123EA6E035242C3EB6E0338BF5B1E5D
:104D6000DCF1200E25D322FA0CFE10EB0E0043FAE4
:104D70000CFE41EB0E01CCF1200E03FA0EFE10EBFF
:104D80000E00CCF1200E51F1000129D401EB0451A9
:104D900012FA0EF2BDE8104058BF7047401C1CBF0D
:104DA000B2F1004F704700280CBF491C20F00100F1
:104DB000704712EB020E43EB030218BF4FF0010ED7
:104DC0004EEA4202ACF1200CDCF11E0E56D943FA39
:104DD0000CFE10EB0E00CCF11E0E51F1FF31D5D5BB
:104DE0000EF1010E12FA0EFE404141EB010101EB02
:104DF000445C5FEA5C5C10D901EB045110EBDE709F
:104E000038BFBEF1004FBDE8104018BF7047002802
:104E10000CBF491C20F00100704734D24FEAD42C5B
:104E200024F4006411F500111BD0B1FA81F20B3AA1
:104E3000A41AA41ED2F12003914030FA03F31943BF
:104E4000904001EBCC7101EB0451002CBDE8104007
:104E5000A8BF704701F1C04101F000414FF00000D0
:104E60007047B0FA80F310FA03F102D1BDE81040A8
:104E70007047E41A173C4805C90AE2E701EB045100
:104E8000BDE81040704749104FEA300001EB045173
:104E9000BDE8104002E04FF0000170474A0008BF33
:104EA0000042F8D0B2F5001F28BF704701F0004162
:104EB0004FF0000070479EEA445F07D011EA5E0F92
:104EC000BDE8104004BF002100207047BDE810403D
:104ED00070B5FFF791FE00BF40DFF63E104683F04D
:104EE000004170470000E0FF43004FEAD30C4FEA57
:104EF0003C0C43401FBF40070CF1605113F0FE4FC4
:104F000070471CF0006F03D10CF000410020704787
:104F10000CF0004343EA507040EACC0010B500F0BA
:104F200071F800BF000000924FEA0001FFF7B2BE27
:104F30004FF00041A1F500214FF000007047000044
:104F400090EA010F48BF81F0004100F1AE80421AA3
:104F50003CBF801A89184FEAD052A2EBD1534FF0D0
:104F60007F4C1CEA410F18BF9CEA026F00F03B80A7
:104F70004FF0004C4CEA00204CEA012121FA03FCDE
:104F800010EB0C0C1ED202F1FF325FEA1C2040EB4A
:104F9000C25038BF70471CF07F0F4FEA400C18BF5B
:104FA000BCF17F4F38BF7047C3F12003994008BF61
:104FB00020F00100BCF17F4F38BF7047A0F1C04026
:104FC00000F066B84FEA3C00000A40EBC25028BF30
:104FD0001CF0FF0F4FEA400CE6D018BFBCF17F4F2A
:104FE00038BF7047EAE79CEA026F05D010EA5C0F11
:104FF00008BF00F00040704710B500F003F800BF94
:1050000064FBBE3E0EF1020E2EF0030E5EF8044B62
:10501000244204D44FEA4102B2F17F4F11D84FEA43
:105020004003B3F17F4F0CD80ED14FEAD07C0CEB8C
:105030004C0C0CF1020CB2F17F4F08BF4CEBD17C51
:1050400004E04FF0080C01E04FEAD17C0CEB4C037C
:1050500024FA03F404F00704B4F1040C06D20EEBB6
:10506000840CBDE810404CF0010C6047DFE80CF008
:10507000070802024FF00040A0F5800010BD08466E
:10508000420018BFD2F1807288BF00F0004010BD0E
:10509000FF2141EAD050C0057047000090EA010F9F
:1050A00048BF81F000413FF552AF421A04D882F068
:1050B0000042A0EB020011444FEAD052A2EBD153C0
:1050C0004FF07F4C1CEA410F18BF9CEA026F4AD098
:1050D0004FF0004C4CEA00204CEA012121FA03FC7D
:1050E000B0EB0C0C0FD412F0FE0F36D05FEA4C0080
:1050F0001DD5001240EBC25038BF70471CF03F0F67
:1051000018BF70470BE05FEA1C20A2F1010240EBE0
:10511000C25038BF70471CF07F0F18BF7047C3F1F3
:105120002003994014BF401E20F0010070474FEA51
:105130001223800808BF7047B0FA80FCA2EB0C0273
:10514000CCF1280C60FA0CF093EA122F04BF00EBAC
:10515000C25070474FEAC3707047130A5FEADC1011
:1051600008BF7047F6E79CEA026F04D010EA5C0FB4
:1051700008BF0020704710B5FFF744FF40DFF63E40
:1051800081F0004070474FF000007047FBF7ECBA29
:105190000CF00F03092B08BF082000F05F800A2BDA
:1051A0000BD0082B18BF704708BF1CF0400F0AD067
:1051B0004FF000004FF0000170471CF0400F18BF87
:1051C0004FF0004070471CF0100F08D000F07F42F5
:1051D00020F0704342EAD3014FEA4370704700F079
:1051E000604021F07F4242EA000201F07F4040EA45
:1051F000727070474FF0FF0C4CF4E06C1CEA1153D6
:105200001CBF9CEA030C9445C2BFDA4201EB025179
:105210007047002B0DD0BCF1000F0FD001F0004102
:10522000002AA4BF41F0E04141F07F614FF000004F
:10523000704701F000414FF00000704750EA013321
:105240004FF09B0C18BF4CF0806C7FF46FAB704735
:10525000FBF748BFFCF7FAB8FCF788BA1CF4801FCC
:1052600011D01CF4E02F03D06FEACC314900704715
:105270004FF04050EFF3008222F0704242EA000209
:1052800082F3008870474FF0000070470240000032
:10529000000000A00000000005400000000000C861
:1052A000000000000C4000000000409C00000000D6
:1052B000194000000020BCBE000000003440000087
:1052C000BFC91B8E00000004B5400000504BCFD07A
:1052D0006607E2CF010000006C4100003E8251AA47
:1052E000DFEEA73401000000D9420000DCB5A0E2E7
:1052F0003A301F97FFFFFFFFB4450000FD25A0C80F
:10530000E9A3C14FFFFFFFFFFF3F00000000008047
:1053100000000000FF3F00000000008000000000CF
:105320000000000000000000010203040607080955
:105330000000000001020304010202030405060745
:1053400008090A0B0C0D0E0F1010000002000000DF
:10535000040000000800000010000000FDFFFFFF37
:10536000FBFFFFFFF7FFFFFFEFFFFFFF2F737461EE
:105370007475733A73706565643D252E32662C43EF
:1053800043523D25752C5053433D25752C415252B7
:105390003D25753B0D0A0000F85400080000002070
:1053A0001000000028010008085500081000002027
:1053B0005007000044010008000000000000F07FDA
:1053C000FFFFFFFFFFFFEF7F1C0000004300000016
:1053D000F8FFFFFF0C0000000E0000000F000000AF
:1053E0002E0000001001000043000000F8FFFFFF46
:1053F00000404040404040404040414141414140E8
:10540000404040404040404040404040404040409C
:10541000400502020202020202020202020202022B
:105420000220202020202020202020020202020230
:105430000202909090909090101010101010101088
:105440001010101010101010101010100202020294
:1054500002028888888888880808080808080808D8
:1054600008080808080808080808080802020202D4
:1054700040000000000000000000000000000000EC
:10548000000000000000000000000000000000001C
:10549000000000000000000000000000000000000C
:1054A00000000000000000000000000000000000FC
:1054B00000000000000000000000000000000000EC
:1054C00000000000000000000000000000000000DC
:1054D00000000000000000000000000000000000CC
:1054E00000000000000000000000000000000000BC
:1054F00000000000000000000024F4000101000092
:08550000100000000000000093
:04000005080000ED02
:00000001FF
